:020000040800F2
:100000003004002001010008770A0008F309000805
:10001000750A0008750100084D0B0008000000007B
:100020000000000000000000000000009B0A000823
:100030007701000800000000990A00089D0A0008E6
:100040001B0100081B0100081B0100081B01000820
:100050001B0100081B0100081B0100081B01000810
:100060001B0100081B0100081B0100081B01000800
:100070001B0100081B0100081B0100081B010008F0
:100080001B0100081B0100081B0100081B010008E0
:100090001B0100081B0100081B0100081B010008D0
:1000A0001B0100081B0100081B0100081B010008C0
:1000B0001B0100081B010008000000001B010008D4
:1000C0001B01000800000000000000001B010008E8
:1000D000000000001B0100081B01000800000000D8
:1000E0001B0100081B0100081B010008DFF80CD0F1
:1000F00000F02EF800480047650F0008300400208B
:100100000648804706480047FEE7FEE7FEE7FEE7B1
:10011000FEE7FEE7FEE7FEE7FEE7FEE7050B000869
:10012000ED00000830B50B460146002020220124D6
:1001300009E021FA02F59D4205D303FA02F5491BB5
:1001400004FA02F52844151EA2F10102F1DC30BDCB
:10015000064C074D06E0E06840F0010394E8070014
:1001600098471034AC42F6D3FFF7C4FFD00F000815
:10017000F00F0008FEE7704770B5044600F0F2F893
:100180000546601C02D004480078044400F0EAF8F8
:10019000401BA042FAD370BD000000202DE9F84FAB
:1001A000DFF894A100220AF1040B14464FF0010C71
:1001B0004FF00F090BF1040E0B680CFA04F52B40FD
:1001C000AB4271D15D4E4F68A7EB0608B7422BD00A
:1001D0000DDC032F34D005DC37B3012F19D0022FEB
:1001E0002FD11BE0112F16D0122F2AD119E0B8F50C
:1001F000881F19D006DCB8F5803F15D0B8F5801FF0
:100200001FD111E0B8F5001F0ED0B8F5041F18D1AA
:100210000AE0CA6815E0CA68121D12E0CA6808320E
:100220000FE0CA680C320CE08A682AB1012A4FF04C
:10023000080203D0456104E0042202E0056100E009
:100240000022FF2B01D8074601E000F104074FEA26
:10025000840601D9A6F120063D6809FA06F825EAC8
:10026000080502FA06F645EA06053D604D68ED0010
:100270005CD5334DAE6946F00106AE61AD6924F040
:10028000030605F0010500952E4D7719BD68A607F8
:10029000360F09FA06F825EA0805DFF8AC80404574
:1002A00003D14FF0000810E040E0DFF8A0804045A7
:1002B00002D14FF0010808E0DFF89480404502D1F8
:1002C0004FF0020801E04FF0030808FA06F848EA88
:1002D0000508C7F808804D68ED0305D5DAF8005029
:1002E0001D43CAF8005004E0DAF800609E43CAF8E3
:1002F00000604D68DBF80060AD035D4601D51E432C
:1003000000E09E432E604D68DEF80060ED02754609
:1003100001D51E4300E09E432E604D68AD020D4D99
:100320002E6801D51E4300E09E432E60641C102CF5
:10033000FFF442AFBDE8F88F000401400000111047
:10034000001002400000014000080140000C014084
:10035000001001400C0401400AB10161704709041A
:10036000FBE70000014880687047000000000020A3
:1003700002488168027811448160704700000020C3
:10038000074810B5016841F010010160032000F03A
:1003900091F8002000F006F800F024F8002010BDCD
:1003A0000020024070B50D4D04464FF47A71287854
:1003B000B1FBF0F00A490968B1FBF0F000F001FB75
:1003C00048B9102C07D200222146501E00F052F8E6
:1003D00000206C6070BD012070BD00000000002096
:1003E0000C000020214808B5816941F001018161BC
:1003F000816901F001010091C16941F08051C16141
:10040000C06900F080500090032000F053F80022F3
:1004100011466FF00B0000F02DF8002211466FF02E
:100420000A0000F027F8002211466FF0090000F0E2
:1004300021F800221146501F00F01CF8002211463E
:10044000101F00F017F800221146901E00F012F85D
:1004500000221146501E00F00DF80548416821F0B9
:10046000E06141F00071416008BD000000100240F1
:1004700000000140F0B40E4B1B680C46C3F302238E
:10048000C3F10705042D00D90425191D072901D240
:10049000002300E0DB1E012606FA05F1491E21407B
:1004A00099409E40761E16403143F0BC00F0E4BAFD
:1004B0000CED00E0064900F0070208684FF6FF0364
:1004C000184040EA0220034A1043086070470000C9
:1004D0000CED00E00000FA052DE9F047DFF83C8163
:1004E00005460E46D8F8000000F00700B0420CD2D6
:1004F000D8F8001021F007013143C8F80010D8F8EF
:10050000000000F00700B04263D12878444C800717
:1005100005D56068A96820F0F0000843606028787D
:10052000C00745D06868012816D02168022816D077
:10053000890700294DDA616821F0030101436160F8
:10054000FFF710FF6968074641F2883001290FD094
:100550000229814619D027E021688903E9E789014A
:10056000E7E700BFFFF7FEFEC11B494501D918E0D0
:1005700081466068C0F381000128F3D118E000BF14
:10058000FFF7F0FEC11B49450BD86068C0F381003E
:100590000228F5D10CE000BFFFF7E4FEC11B49457E
:1005A00002D90320BDE8F087606810F00C0FF3D18A
:1005B000D8F80010404601F00701B1420BD901689C
:1005C00021F0070131430160006800F00700B042EC
:1005D00001D00120E6E72878400705D56068E96882
:1005E00020F4E060084360602878000706D5606862
:1005F000296920F4605040EAC100606000F01CF8F6
:100600006168084AC1F30311515CC840064908609B
:100610000020FFF7C7FE0020C4E7000000200240D2
:1006200000100240C00F00080C00002001480068C4
:10063000704700000C00002012A185B00FC98DE8A2
:100640000F0014A0144A006804905168134801F088
:100650000C03042B10D0082B0ED1C1F38343C90324
:100660001DF803000AD5516804AAC1F34041515C4A
:100670000A4A5043B0FBF1F005B0704708494843BF
:10068000FAE7000002030405060708090A0B0C0D2F
:100690000E0F1010010200000010024000127A003C
:1006A00000093D002DE9F84F04460078B94DC00718
:1006B00048D06868C0F38100012807D06868C0F39B
:1006C0008100022809D16868C00306D52868800324
:1006D00038D5606800286FD034E06068B0F5803F9E
:1006E0000BD010B1B0F5A02F11D0286820F48030C5
:1006F0002860286820F4802002E0286840F48030D8
:100700002860606888B1FFF72DFE064609E028687A
:1007100040F480202860F0E7FFF724FE801B642867
:1007200075D828688003F7D50CE0FFF71BFE064656
:1007300005E000BFFFF716FE801B6428F0D828688C
:100740008003F7D42078944E80074FF001094FF0D2
:1007500000083BD5686810F00C0F07D06868C0F33C
:100760008100022809D16868C00306D42868800780
:1007700014D5206901281FD110E02069B0B1C6F856
:100780000090FFF7EFFD074605E000BFFFF7EAFD29
:10079000C01B0228C4D828688007F7D5286861697B
:1007A00020F0F80040EAC10028600FE0C6F80080A1
:1007B000FFF7D8FD074606E0E9E000BFFFF7D2FDEE
:1007C000C01B022823D828688007F7D420780007A8
:1007D0002CD57248A169D9B1C0F80090FFF7C2FDCD
:1007E000074604E0FFF7BEFDC01B02280FD8686A69
:1007F0008007F7D56A484FF4FA510068B0FBF1F072
:10080000009000BF0098411E0091FAD20EE080E0F7
:10081000C0F80080FFF7A6FD074604E0FFF7A2FD41
:10082000C01B022875D8686A8007F7D42078400773
:1008300060D5E8690027C00008D4E86940F080501E
:10084000E861E869012700F0805000905548016890
:10085000C90513D40168834641F480710160FFF734
:1008600081FD824606E000BFFFF77CFDA0EB0A0099
:1008700064284ED8DBF80000C005F5D5E0680128F3
:100880000AD008B1052813D0286A20F00100286298
:10089000286A20F0040002E0286A40F00100286283
:1008A000E06841F2883B98B1FFF75CFD82460BE0BF
:1008B000286A40F004002862EEE700BFFFF752FD0F
:1008C000A0EB0A0159455AD8286A8007F6D50CE0F2
:1008D000FFF748FD824605E0FFF744FDA0EB0A0163
:1008E00059454CD8286A8007F6D41FB1E86920F032
:1008F0008050E861E06988B36968C1F38101022929
:1009000045D00228C6F8608004D0FFF72BFD0446CE
:1009100038E034E0FFF726FD074604E0FFF722FD4C
:10092000C01B02282BD828688001F7D4206AB0F5B4
:10093000803F05D16868A16820F4003008436860F2
:10094000D4E908010843696821F474110843686018
:10095000C6F86090FFF706FD044606E015E000BF0C
:10096000FFF700FD001B022809D828688001F7D591
:100970000BE000BFFFF7F6FC001B022802D90320A2
:10098000BDE8F88F28688001F4D40020F8E7012042
:10099000F6E700000010024000004242800442429C
:1009A0000C000020007000404FF0E021042808698E
:1009B00003D020F004000861704740F00400FAE71B
:1009C000704710B5401EB0F1807F01D3012010BDEB
:1009D0004FF0E02460610F21601700F04DF8002017
:1009E000A06107202061002010BD10B5FFF7E8FFCF
:1009F00010BDFEE72DE9F0431B4885B0816941F049
:100A000004018161816901F004010491816941F06F
:100A1000080181618069DFF8548000F008000490CB
:100A20000022F0214046FFF797FCDFF844904FF496
:100A3000E047002239464846FFF78EFCF0200124AB
:100A4000002502268DE8710069464046FFF7A6FBA7
:100A500001AA009782E8700069464846FFF79EFBAE
:100A600005B0BDE8F083000000100240000801401E
:100A7000000C0140FEE770470907090E002806DA5E
:100A800000F00F0000F1E02080F8141D704700F125
:100A9000E02080F8001470477047704710B5FFF7EA
:100AA00067FCBDE81040FFF7A0BF10B590B0022072
:100AB00000900120049010200024059007946846BF
:100AC000FFF7F0FD00B1FEE70F20CDE90A040C941A
:100AD0000D9400210AA80E94FFF7FEFC00B1FEE77A
:100AE000FFF7A4FD4FF47A71B0FBF1F0FFF769FF57
:100AF0000420FFF759FF00221146501EFFF7BAFCF1
:100B000010B010BD0D48016841F00101016041685D
:100B10000B4A1140416001680A4A114001600168B6
:100B200021F480210160416821F4FE0141604FF40D
:100B30001F0181600449C003086070470010024033
:100B40000000FFF8FFFFF6FE08ED00E0FEE7000002
:100B50000FB4084B10B504A902AA039800F01CF8C2
:100B6000044602A9002000F0C1F8204610BC5DF840
:100B700014FB0000ED0C000802E008C8121F08C1B9
:100B8000002AFAD170477047002001E001C1121F0E
:100B9000002AFBD1704700002DE9FF4F89B09B462A
:100BA0000446002506E025280BD05A460B999047AD
:100BB000641C6D1C20780028F5D10DB02846BDE8D6
:100BC000F08F0027B8460122474900E0074314F898
:100BD000013F203B02FA03F00842F7D120782E288B
:100BE00019D114F8010F47F004072A280ED06FF02E
:100BF0002F022078A0F1300109290CD808EB8801D8
:100C000002EB410100EB0108641CF2E70A98641C46
:100C100050F8048B0A9020780028CED0642808D0A1
:100C2000692806D075281ED05A460B9990476D1C2E
:100C300058E00A994FF00A0901C90A91002802DA1E
:100C400040422D2102E0390504D52B218DF82010DA
:100C5000012103E0F90704D02021F7E78A4608AE16
:100C60000DE00021FAE70A994FF00A0901C90A913B
:100C7000F7E74946FFF756FA303106F8011D00281C
:100C8000F7D1ADEB060000F12009780701D44FF051
:100C90000108C84502DDA8EB090000E000208046FD
:100CA000002706E008A85A46C05D0B9990476D1CC6
:100CB0007F1C5745F6DB04E030205A460B999047DD
:100CC0006D1CB8F10001A8F10108F5DC05E016F88B
:100CD000010B5A460B9990476D1CB9F10001A9F11F
:100CE0000109F4DC641C65E7092801000A68531C4B
:100CF0000B601070704710B5044600F083F82007B1
:100D0000000E00F07FF8BDE810400120FFF734BA74
:100D100010B5044600224FF480510448FFF71CFB35
:100D20002046BDE81040FFF7E6BF0000000C014080
:100D3000012905D0022905D1BF30C0B2FFF7E8BFB5
:100D40007F30FAE77047000010B500F0ADF82B4C8B
:100D500000224FF480512046FFF7FEFA0022611472
:100D60002046FFF7F9FA00224FF480412046FFF7B2
:100D7000F3FA234C002210212046FFF7EDFA00225F
:100D800020212046FFF7E8FA002240212046FFF705
:100D9000E3FA002280212046FFF7DEFA0F20FFF75A
:100DA000EBF9302000F02EF80520FFF7E5F93020B0
:100DB00000F028F80120FFF7DFF9302000F022F8DA
:100DC0000120FFF7D9F9202000F01CF86420FFF77C
:100DD000D3F92820FFF79CFF0C20FFF799FF06208E
:100DE000FFF796FF0120FFF793FF0220FFF790FF28
:100DF000BDE810406420FFF7BFB90000000C0140BF
:100E00000008014070B5264E044600224FF4005100
:100E10003046FFF7A1FA234D002210212846FFF7A4
:100E20009BFA2009C00704D0012210212846FFF7B1
:100E300093FA002220212846FFF78EFA6009C007A6
:100E400004D0012220212846FFF786FA0022402103
:100E50002846FFF781FAA009C00704D001224021EB
:100E60002846FFF779FA002280212846FFF774FA16
:100E7000E00904D0012280212846FFF76DFA012203
:100E8000940321463046FFF767FA0120FFF774F913
:100E900021463046BDE870400022FFF75DBA0000F1
:100EA000000C0140000801407FB54FF48050012440
:100EB000CDE900041C4E0325694603953046FFF733
:100EC0006DF96003CDE90004694603953046FFF7EC
:100ED00065F9A003CDE90004694603953046FFF7A4
:100EE0005DF91020CDE90004104E694603953046A7
:100EF000FFF754F92020CDE90004694603953046F8
:100F0000FFF74CF94020CDE90004694603953046CF
:100F1000FFF744F98020CDE9000469460395304687
:100F2000FFF73CF97FBD0000000C014000080140C4
:100F300010B50446012211030348FFF70DFA2046BD
:100F4000BDE81040FFF7D7BE000C014010B50446C5
:100F500003E000BFFFF7ECFF641C20780028F9D104
:100F600010BD00000024FFF70BFAFFF79EFDFFF70E
:100F700041FDFFF7E9FE0BA0FFF7E8FF4FF4FA751C
:100F800022460BA10D48FFF7E3FD02210120FFF7E8
:100F9000CFFE0A48FFF7DAFF2846FFF7EDF8641C9A
:100FA000A4B2EDE758696E206368616F000000002D
:100FB000536F2064656D3A20256400001000002006
:100FC00000000000000000000102030406070809F9
:100FD000F00F00080000002010000000780B00084F
:100FE000001000081000002020040000880B0008FA
:100FF00001000000100000000000000000A24A04F0
:04000005080000ED02
:00000001FF
