:020000040800F2
:1000000050040020010100089B100008B50F0008F3
:1000100099100008750100089913000800000000FD
:10002000000000000000000000000000D3120008E3
:100030007701000800000000BD100008D51200087C
:100040001B0100081B0100081B0100081B01000820
:100050001B0100081B0100081B0100081B01000810
:100060001B0100081B0100081B0100081B01000800
:100070001B0100081B0100081B0100081B010008F0
:100080001B0100081B0100081B0100081B010008E0
:100090001B0100081B0100081B0100081B010008D0
:1000A0001B0100081B0100081B0100081B010008C0
:1000B0001B0100081B010008000000001B010008D4
:1000C0001B01000800000000000000001B010008E8
:1000D000000000001B0100081B01000800000000D8
:1000E000790100081B0100081B010008DFF80CD093
:1000F00000F02EF800480047A11900085004002025
:100100000648804706480047FEE7FEE7FEE7FEE7B1
:10011000FEE7FEE7FEE7FEE7FEE7FEE75113000815
:10012000ED00000830B50B460146002020220124D6
:1001300009E021FA02F59D4205D303FA02F5491BB5
:1001400004FA02F52844151EA2F10102F1DC30BDCB
:10015000064C074D06E0E06840F0010394E8070014
:1001600098471034AC42F6D3FFF7C4FFD81A000802
:10017000F81A0008FEE770474FF4006000F014B86A
:1001800070B5044600F000F90546601C02D0044832
:100190000078044400F0F8F8401BA042FAD370BD88
:1001A0000800002070470000044910B50A680242A8
:1001B00002D00860FFF7F6FF10BD000014040140F4
:1001C0002DE9F84FDFF894A100220AF1040B144640
:1001D0004FF0010C4FF00F090BF1040E0B680CFAF5
:1001E00004F52B40AB4271D15D4E4F68A7EB06087A
:1001F000B7422BD00DDC032F34D005DC37B3012FF1
:1002000019D0022F2FD11BE0112F16D0122F2AD177
:1002100019E0B8F5881F19D006DCB8F5803F15D075
:10022000B8F5801F1FD111E0B8F5001F0ED0B8F54A
:10023000041F18D10AE0CA6815E0CA68121D12E04E
:10024000CA6808320FE0CA680C320CE08A682AB12A
:10025000012A4FF0080203D0456104E0042202E0C5
:10026000056100E00022FF2B01D8074601E000F104
:1002700004074FEA840601D9A6F120063D6809FA71
:1002800006F825EA080502FA06F645EA06053D6085
:100290004D68ED005CD5334DAE6946F00106AE61A8
:1002A000AD6924F0030605F0010500952E4D771980
:1002B000BD68A607360F09FA06F825EA0805DFF833
:1002C000AC80404503D14FF0000810E040E0DFF87B
:1002D000A080404502D14FF0010808E0DFF894808B
:1002E000404502D14FF0020801E04FF0030808FA40
:1002F00006F848EA0508C7F808804D68ED0305D5FB
:10030000DAF800501D43CAF8005004E0DAF8006043
:100310009E43CAF800604D68DBF80060AD035D469F
:1003200001D51E4300E09E432E604D68DEF800605C
:10033000ED02754601D51E4300E09E432E604D68D8
:10034000AD020D4D2E6801D51E4300E09E432E6088
:10035000641C102CFFF442AFBDE8F88F000401408C
:100360000000111000100240000001400008014090
:10037000000C0140001001400C0401400AB1016171
:1003800070470904FBE700000148806870470000DF
:10039000080000200248816802781144816070479B
:1003A00008000020074810B5016841F01001016005
:1003B000032000F09DF8002000F006F800F024F87B
:1003C000002010BD0020024070B50D4D04464FF4D2
:1003D0007A712878B1FBF0F00A490968B1FBF0F0B6
:1003E00000F0D0FD48B9102C07D200222146501E43
:1003F00000F05EF800206C6070BD012070BD000050
:100400000800002014000020214808B5816941F04F
:1004100001018161816901F001010091C16941F02F
:100420008051C161C06900F080500090032000F04D
:100430005FF8002211466FF00B0000F039F800223F
:1004400011466FF00A0000F033F8002211466FF0F9
:10045000090000F02DF800221146501F00F028F886
:1004600000221146101F00F023F800221146901EB2
:1004700000F01EF800221146501E00F019F8054841
:10048000416821F0E06141F00071416008BD000069
:10049000001002400000014000F01F0201219140C5
:1004A0004009800000F1E020C0F800117047000012
:1004B000F0B40E4B1B680C46C3F30223C3F10705CF
:1004C000042D00D90425191D072901D2002300E0BD
:1004D000DB1E012606FA05F1491E214099409E4087
:1004E000761E16403143F0BC00F0D8BD0CED00E0A4
:1004F000064900F0070208684FF6FF03184040EA7B
:100500000220034A10430860704700000CED00E031
:100510000000FA05014901200862704700000E4200
:1005200010B529A401461DCC86B08DE81D002AA077
:100530002A4C006804900020012923D002293AD0D7
:1005400010291DD161682268D20119D5C1F38342F7
:10055000C9031DF8020009D5616804AAC1F340412E
:10056000515C1F4AB2FBF1F1484301E01D49484389
:100570006168490204D440005FF00301B0FBF1F070
:1005800006B010BD226AC2F30121012903D19207EE
:1005900001D5C803F4E7022905D1626A920702D5A2
:1005A00049F64040ECE70329EAD121688903E7D501
:1005B0004FF22440E4E700F03DF96168C1F3813176
:1005C000491C4900DAE70000020304050607080990
:1005D0000A0B0C0D0E0F101001020000001002405B
:1005E00000127A0000093D002DE9F8430546007825
:1005F000354CC00754D0E0690026C00008D4E0693B
:1006000040F08050E061E069012600F080500090E9
:100610002E480168C90512D40168804641F48071F2
:100620000160FFF7B1FE074605E000BFFFF7ACFE33
:10063000C01B642823D8D8F80000C005F6D5206A6E
:1006400010F4407021D0A98801F4407181421CD07F
:10065000206A1F49012220F440700A6000220A60CB
:100660002062C00711D0FFF78FFE074641F288389D
:1006700008E000BFFFF788FEC11B414502D90320F7
:10068000BDE8F883206A8007F4D5206A696820F401
:100690004070084320621EB1E06920F08050E061A4
:1006A0002878800705D56068A96820F44040084391
:1006B00060602878C00605D56068E96820F480008D
:1006C000084360600020DBE700100240007000403B
:1006D000400442422DE9F047DFF83C8105460E46D2
:1006E000D8F8000000F00700B0420CD2D8F8001093
:1006F00021F007013143C8F80010D8F8000000F0DD
:100700000700B04263D12878444C800705D5606863
:10071000A96820F0F000084360602878C00745D041
:100720006868012816D02168022816D08907002998
:100730004DDA616821F0030101436160FFF724FE97
:100740006968074641F2883001290FD002298146A5
:1007500019D027E021688903E9E78901E7E700BFAD
:10076000FFF712FEC11B494501D918E081466068B8
:10077000C0F381000128F3D118E000BFFFF704FEA9
:10078000C11B49450BD86068C0F381000228F5D130
:100790000CE000BFFFF7F8FDC11B494502D903205B
:1007A000BDE8F087606810F00C0FF3D1D8F80010A6
:1007B000404601F00701B1420BD9016821F0070161
:1007C00031430160006800F00700B04201D0012011
:1007D000E6E72878400705D56068E96820F4E0601E
:1007E000084360602878000706D56068296920F40E
:1007F000605040EAC100606000F02CF86168084A6F
:10080000C1F30311515CC840064908600020FFF79E
:10081000DBFD0020C4E70000002002400010024081
:10082000C01A00081400002001480068704700004A
:10083000140000200448054900684968044AC1F3CF
:10084000C221515CC84070471400002000100240D3
:10085000D01A000812A185B00FC98DE80F0014A0AE
:10086000144A006804905168134801F00C03042BEB
:1008700010D0082B0ED1C1F38343C9031DF8030028
:100880000AD5516804AAC1F34041515C0A4A504359
:10089000B0FBF1F005B0704708494843FAE70000A3
:1008A00002030405060708090A0B0C0D0E0F1010B1
:1008B000010200000010024000127A0000093D0011
:1008C0002DE9F84F04460078B94DC00748D0686854
:1008D000C0F38100012807D06868C0F381000228B6
:1008E00009D16868C00306D52868800338D56068D8
:1008F00000286FD034E06068B0F5803F0BD010B1B5
:10090000B0F5A02F11D0286820F480302860286826
:1009100020F4802002E0286840F48030286060687D
:1009200088B1FFF731FD064609E0286840F48020D1
:100930002860F0E7FFF728FD801B642875D8286839
:100940008003F7D50CE0FFF71FFD064605E000BF6A
:10095000FFF71AFD801B6428F0D828688003F7D4BD
:100960002078944E80074FF001094FF000083BD5E6
:10097000686810F00C0F07D06868C0F38100022887
:1009800009D16868C00306D42868800714D5206997
:1009900001281FD110E02069B0B1C6F80090FFF720
:1009A000F3FC074605E000BFFFF7EEFCC01B022882
:1009B000C4D828688007F7D52868616920F0F80056
:1009C00040EAC10028600FE0C6F80080FFF7DCFCB9
:1009D000074606E0E9E000BFFFF7D6FCC01B02288F
:1009E00023D828688007F7D4207800072CD57248D0
:1009F000A169D9B1C0F80090FFF7C6FC074604E032
:100A0000FFF7C2FCC01B02280FD8686A8007F7D521
:100A10006A484FF4FA510068B0FBF1F0009000BF53
:100A20000098411E0091FAD20EE080E0C0F80080EC
:100A3000FFF7AAFC074604E0FFF7A6FCC01B02284C
:100A400075D8686A8007F7D42078400760D5E869D0
:100A50000027C00008D4E86940F08050E861E869E8
:100A6000012700F08050009055480168C90513D453
:100A70000168834641F480710160FFF785FC82467E
:100A800006E000BFFFF780FCA0EB0A0064284ED808
:100A9000DBF80000C005F5D5E06801280AD008B1F0
:100AA000052813D0286A20F001002862286A20F067
:100AB000040002E0286A40F001002862E06841F288
:100AC000883B98B1FFF760FC82460BE0286A40F053
:100AD00004002862EEE700BFFFF756FCA0EB0A0116
:100AE00059455AD8286A8007F6D50CE0FFF74CFC28
:100AF000824605E0FFF748FCA0EB0A0159454CD8B7
:100B0000286A8007F6D41FB1E86920F08050E861B8
:100B1000E06988B36968C1F38101022945D00228E0
:100B2000C6F8608004D0FFF72FFC044638E034E0BC
:100B3000FFF72AFC074604E0FFF726FCC01B02284B
:100B40002BD828688001F7D4206AB0F5803F05D102
:100B50006868A16820F4003008436860D4E908019F
:100B60000843696821F4741108436860C6F860900E
:100B7000FFF70AFC044606E015E000BFFFF704FC9F
:100B8000001B022809D828688001F7D50BE000BFB8
:100B9000FFF7FAFB001B022802D90320BDE8F88FFB
:100BA00028688001F4D40020F8E70120F6E700006F
:100BB0000010024000004242800442421400002023
:100BC00000700040F8B505004FF0000016460C46D6
:100BD000009006D02CB100226946284600F019F892
:100BE00008B10120F8BD287B2070E87BE070697BAC
:100BF0006170A97BA17056B100F06AFAE07060786C
:100C000000F066FA6070A07800F062FAA070002030
:100C1000F8BD2DE9F04791460C465FEA00084AD03E
:100C200084B3D8F800004068400744D4404600F040
:100C3000EDFA4FF461620546B0FBF2F1B0FBF2F35E
:100C400002FB13503C23B0FBF3F0B5FBF2F66070EF
:100C500002FB1650B0FBF3F203FB1200A070182940
:100C600031D31820B1FBF0F7B1FBF0F200FB12100A
:100C70002070404600F0C3FA411C04D0A84202D9BB
:100C8000461B02E017E04FF0FF36A7EB071000EB22
:100C90004000C0EB001005EBC0152946404600F0AF
:100CA00004FB40B9701C01D0711900E03146404688
:100CB00000F0E7FA10B10120BDE8F0873946404660
:100CC00000F011FA00E02170B9F1000F0BD020788C
:100CD00000F0FEF92070607800F0FAF96070A078FA
:100CE00000F0F6F9A0700020E6E7000070B50400FF
:100CF00003D0607C002610B105E0012070BD267491
:100D0000204600F043F802206074204600F010F9FD
:100D1000042578BB204600F03DFA58BB20684168A6
:100D200021F007014160A06820B11748016821F057
:100D3000010101601448001F0168A26821F460717C
:100D4000114301606068411C04D10120FFF7E8FBFA
:100D500080B1401E21688A6822F00F0242EA1042E8
:100D60008A602168CA6860F30F02CA60204600F0FA
:100D70002BFA08B16574C0E7E67301206073A073B5
:100D80006074002070BD0000306C004008B5006841
:100D9000084988420DD1FFF7BDFB0748C16941F002
:100DA0000061C161C069054900F000600090012048
:100DB000086008BD00280040001002403C04424288
:100DC0002DE9F0410D4604003BD0C5B3207C01283D
:100DD0003AD04FF0010884F8108002206074E8785F
:100DE00072B300F06CF9E073687800F068F9607332
:100DF000A87800F064F9A073C2B2617BE07B00F0D8
:100E000015FA20732870204600F000FA4FF4616153
:100E1000B0FBF1F1002518292DD91822B1FBF2F110
:100E2000A1EB011101EB4101C1EB011100EBC11676
:100E30003146204600F039FA0427C8B90BE000E03B
:100E400004E00120BDE8F0810220FBE7E073687850
:100E50006073A878CFE7204600F0D1F9411C0AD092
:100E6000B04208D206490144204600F00AFA10B107
:100E700067742574E5E784F8118025740020E1E7A4
:100E8000805101002DE9F0410D46040024D01DB32E
:100E9000207C012823D04FF0010884F81080022024
:100EA00060742878EAB100F00AF94FF4616100FB40
:100EB00001F6687800F003F9C0EB001006EB80063D
:100EC000A87800F0FCF835182946204600F0EDF926
:100ED0000026042710BB0FE00120BDE8F0810220AE
:100EE000FBE74FF4616148436978C1EB011100EB06
:100EF0008100A9784518E7E72068416821F00501DD
:100F00004160204600F07BF9411C0AD0A84208D27B
:100F100006490144204600F0B4F910B16774267404
:100F2000DAE784F8118026740020D6E780510100AA
:100F300070B504000AD02068416821F008014160C2
:100F4000FFF722FA05464FF47A7608E0012070BDDB
:100F5000FFF71AFA401BB04201D9032070BD206888
:100F600040680007F4D5002070BD4FF0E021042850
:100F7000086903D020F004000861704740F00400C5
:100F8000FAE7704710B5401EB0F1807F01D3012011
:100F900010BD4FF0E02460610F21601700F07EF873
:100FA0000020A06107202061002010BD10B5FFF7D0
:100FB000E8FF10BDFEE7000030B5184885B0816934
:100FC00041F004018161816901F0040104918169AA
:100FD00041F0080181618069002400F0080004905C
:100FE0004FF4006000900E48CDE901040D4D6946B4
:100FF0002846FFF7E5F84FF41040CDE900046946B4
:1010000028460294FFF7DCF8002211462820FFF75B
:101010004FFA2820FFF740FA05B030BD001002401B
:1010200000002110000801401CB51A481849016051
:101030004FF0FF3141604FF480718160FFF756FE41
:1010400000B1FEE719208DF8040008208DF8050096
:1010500000208DF80600012201A90E48FFF712FFBB
:1010600000B1FEE704208DF8000011208DF801008A
:1010700022208DF8020018208DF803000122694615
:101080000448FFF79DFE002800D0FEE71CBD0000CD
:101090000028004018000020FEE770470907090EED
:1010A000002806DA00F00F0000F1E02080F8141D9F
:1010B000704700F1E02080F8001470477047010984
:1010C00001EB810100F00F0000EB4100C0B270475E
:1010D000002102E00A38C0B2491C0A28FAD20907E6
:1010E00040EA116070472DE9F04104460025C07BBD
:1010F000627BA37B42E0012A16D0032A14D0052A82
:1011000012D0072A10D0082A0ED00A2A0CD00C2A96
:101110000AD0042A10D0062A0ED0092A0CD00B2A95
:101120000AD0022A0DD028E01F2B0CD30C2A05D19F
:1011300001221346401C20E01E2B04D30123521C25
:101140001BE01C2B02D203F1010316E011D183B284
:101150009E0710D16426B3FBF6F706FB173636B9A7
:101160004FF4C876B3FBF6F706FB17331BB91D2304
:1011700003E01D2B01D1032201236D1C8D42BAD344
:10118000D1B2E0736173DAB2A27300F04FF820734A
:10119000BDE8F08170B50446FFF7F6F805464FF458
:1011A0007A7606E0FFF7F0F8401BB04201D9032041
:1011B00070BD206840688006F4D52068416841F021
:1011C00010014160002070BD70B5044600684168A0
:1011D00021F010014160FFF7D7F805464FF47A7609
:1011E00007E000BFFFF7D0F8401BB04201D9032051
:1011F00070BD206840688006F4D5002070BD01688D
:10120000086A496A89B241EA00407047006881690A
:101210008AB2C1698BB2816989B28A4203D0C0693E
:1012200061F31F40704743EA02407047F0B5642401
:10123000C1EBC1030927A500072603EB011303290E
:10124000B3FBF7F100F5FA60114401440AD2401EE5
:10125000B0FBF4F201EB9001B0FBF5F0891A084401
:10126000001D08E0B0FBF4F201EB9001B0FBF5F0DB
:10127000891A0844801CB0FBF6F106FB1100C0B2CD
:10128000F0BD70B50D4606460024FFF783FF48B950
:101290003168280C08623168A8B248623046FFF70E
:1012A00093FF00B10124204670BD70B50D4606467F
:1012B0000024FFF76FFF48B93168280C8861316856
:1012C000A8B2C8613046FFF77FFF00B10124204675
:1012D00070BD704710B5FFF75DF8BDE81040FFF72F
:1012E00065BE30B593B001250A2000901020CDE9ED
:1012F00004500024CDE906546846FFF7E1FA00B136
:10130000FEE70F20CDE90A040C940D9400210AA8F1
:101310000E94FFF7DFF900B1FEE74FF40070CDE95E
:101320000F500FA8FFF760F900B1FEE7FFF77CFA56
:101330004FF47A71B0FBF1F0FFF724FE0420FFF7C1
:1013400014FE00221146501EFFF7B2F813B030BD54
:101350000D48016841F00101016041680B4A1140EC
:10136000416001680A4A11400160016821F480214E
:101370000160416821F4FE0141604FF41F0181606A
:101380000449C00308607047001002400000FFF8E5
:10139000FFFFF6FE08ED00E0FEE700000FB4084B8B
:1013A00010B504A902AA039800F01CF8044602A98B
:1013B000002000F0B8F9204610BC5DF814FB0000D6
:1013C0002717000802E008C8121F08C1002AFAD136
:1013D00070477047002001E001C1121F002AFBD1B5
:1013E000704700002DE9FF4F8BB088460546002668
:1013F00006E025280BD0DDE90D1290476D1C761C08
:1014000028780028F5D10FB03046BDE8F08F0024D1
:10141000A146A2460122AE4900E0044315F8013F6F
:10142000203B02FA03F00842F7D128782A2810D08E
:101430006FF02F022878A0F13001092915D809EBA7
:10144000890102EB410144F0020400EB01096D1C2B
:10145000F0E758F8041B5FEA010903D544F400548F
:10146000C9F1000944F002046D1C28782E2817D118
:1014700015F8010F44F004042A280ED06FF02F0253
:101480002878A0F1300109290AD80AEB8A0102EB79
:10149000410100EB010A6D1CF2E758F804AB6D1C2A
:1014A00028786C280FD006DC4C2817D068280DD07F
:1014B0006A2814D104E0742810D07A280FD10DE0E6
:1014C00044F400140AE044F4801401E044F44014AD
:1014D0006978814202D104F580146D1C6D1C287856
:1014E000692865D006DC00288DD0632827D06428C1
:1014F00006D15DE06E2808D073282AD0752877D0F1
:10150000DDE90D129047761CE0E0C4F3025002289A
:1015100009D003280DD0D8F8001004280DD00E6093
:1015200008F10408D2E0D8F80010F217C1E900620F
:10153000F6E7D8F800100E80F2E70E70F0E718F822
:10154000041B8DF8001000208DF80100EB460120EF
:1015500003E058F804BB4FF0FF3061074FF000077D
:1015600001D40AE07F1C57450DDA8742FADB1BF8ED
:1015700007100029F6D106E07F1C8742FCDB1BF830
:1015800007100029F8D1DDE90D23A9EB07008146FA
:10159000214600F0B1F83044C61904E0DDE90D122F
:1015A0001BF8010B90477F1EF8D22146484688E081
:1015B00058F8040BC4F302514FF00A0B032900D171
:1015C00000B2042900D140B2002802DA40422D21A5
:1015D00002E0210505D52B218DF82410012104E01E
:1015E00006E0E10710D02021F6E708AF089113E0EC
:1015F00058F8040BC4F302514FF00A0B032900D131
:1016000080B2042900D1C0B20021EEE75946FEF7AE
:1016100089FD303107F8011D0028F7D1ADEB070037
:1016200000F1200B600702D524F4803401E04FF074
:10163000010ADA4502DDAAEB0B0000E00020824639
:1016400000EB0B0108980144A9EB01000A90E003AC
:1016500006D4DDE90D2321460A9800F04DF8064432
:101660004FF0000908E009A911F80900DDE90D12A1
:10167000904709F10109761C08998945F3DBE003DD
:101680000CD5DDE90D2321460A9800F035F8064413
:1016900004E0DDE90D1230209047761CBAF100011C
:1016A000AAF1010AF5DC05E0DDE90D1217F8010BDE
:1016B0009047761CBBF10001ABF1010BF4DC0A98FA
:1016C0002146DDE90D2300F005F806446D1C97E680
:1016D000092801002DE9F041044600251E46174661
:1016E000880404D405E039462020B0476D1C641EF0
:1016F000F9D52846BDE8F0812DE9F04104460025E2
:101700001E469046C80301D5302700E020278804F4
:1017100004D505E041463846B0476D1C641EF9D536
:101720002846BDE8F0810A68531C0B6010707047B2
:1017300010B5044600F084F82007000E00F080F891
:10174000BDE810400120FEF71BBD000010B50446A7
:1017500000224FF480510448FEF710FE2046BDE8F9
:101760001040FFF7E5BF0000000C0140012905D043
:10177000022905D1BF30C0B2FFF7E8BF7F30FAE7DA
:101780007047000010B500F0ADF82B4C00224FF46C
:1017900080512046FEF7F2FD002261142046FEF73C
:1017A000EDFD00224FF480412046FEF7E7FD234C7B
:1017B000002210212046FEF7E1FD002220212046D4
:1017C000FEF7DCFD002240212046FEF7D7FD002277
:1017D00080212046FEF7D2FD0F20FEF7D1FC3020FD
:1017E00000F02EF80520FEF7CBFC302000F028F8A2
:1017F0000120FEF7C5FC302000F022F80120FEF7A2
:10180000BFFC202000F01CF86420FEF7B9FC282063
:10181000FFF79CFF0C20FFF799FF0620FFF796FFCC
:101820000120FFF793FF0220FFF790FFBDE8104073
:101830006420FEF7A5BC0000000C01400008014038
:1018400070B5264E044600224FF400513046FEF794
:1018500095FD234D002210212846FEF78FFD20091B
:10186000C00704D0012210212846FEF787FD002280
:1018700020212846FEF782FD6009C00704D001221E
:1018800020212846FEF77AFD002240212846FEF757
:1018900075FDA009C00704D0012240212846FEF7AB
:1018A0006DFD002280212846FEF768FDE00904D086
:1018B000012280212846FEF761FD01229403214682
:1018C0003046FEF75BFD0120FEF75AFC214630460C
:1018D000BDE870400022FEF751BD0000000C014041
:1018E000000801407FB54FF480500124CDE9000489
:1018F0001C4E0325694603953046FEF761FC6003E4
:10190000CDE90004694603953046FEF759FCA00373
:10191000CDE90004694603953046FEF751FC1020DE
:10192000CDE90004104E694603953046FEF748FCA9
:101930002020CDE90004694603953046FEF740FCBF
:101940004020CDE90004694603953046FEF738FC97
:101950008020CDE90004694603953046FEF730FC4F
:101960007FBD0000000C01400008014010B5044696
:10197000012211030348FEF701FD2046BDE8104097
:10198000FFF7D6BE000C014010B5044603E000BFCF
:10199000FFF7ECFF641C20780028F9D110BD00008F
:1019A000FEF700FDFFF79DFCFFF706FBFFF73CFB92
:1019B000FFF7E8FE35A0FFF7E7FF4FF47A70FEF778
:1019C000DFFB0120FFF7C2FE354DEC1C002234493D
:1019D0003448FFF71EF932490022C91C3148FFF78D
:1019E000F1F801210520FFF7C1FE2E482A782EA12B
:1019F0001430FFF7D3FC2B481430FFF7C5FF2CA0A1
:101A0000FFF7C2FF27486A7827A11430FFF7C6FC0A
:101A100024481430FFF7B8FF25A0FFF7B5FF214891
:101A2000AA7821A11430FFF7B9FC1E481430FFF743
:101A3000ABFF02210420FFF799FE1A48A2781AA1F1
:101A40001430FFF7ABFC17481430FFF79DFF19A0C7
:101A5000FFF79AFF1348627813A11430FFF79EFC3A
:101A600010481430FFF790FF12A0FFF78DFF0D48CC
:101A7000E27811A11430FFF791FC0A481430FFF707
:101A800083FF6420FEF77CFBA0E700002054686F12
:101A900069204769616E205468756320000000006A
:101AA00000000020180000202530326400000000F3
:101AB0003A0000002F000000323025303264000070
:101AC00000000000000000000102030406070809EE
:101AD0000000000001020304F81A000800000020C2
:101AE00018000000C4130008101B00081800002094
:101AF00038040000D41300080000000000000000BB
:101B000001000000100000000000000000A24A04D4
:04000005080000ED02
:00000001FF
