:020000040800F2
:100000005004002001010008830C0008F90B0008CF
:10001000810C000849010008110F000800000000D1
:10002000000000000000000000000000A70C000815
:100030004B01000800000000A50C0008A90C0008F6
:100040001B0100081B0100081B0100081B01000820
:100050001B0100081B0100081B0100081B01000810
:100060001B0100081B0100081B0100081B01000800
:100070001B0100081B0100081B0100081B010008F0
:100080001B0100081B0100081B0100081B010008E0
:100090001B0100081B0100081B0100081B010008D0
:1000A0001B0100081B0100081B0100081B010008C0
:1000B0001B0100081B010008000000001B010008D4
:1000C0001B01000800000000000000001B010008E8
:1000D000000000001B0100081B01000800000000D8
:1000E0001B0100081B0100081B010008DFF80CD0F1
:1000F00000F018F80048004789110008500400205B
:100100000648804706480047FEE7FEE7FEE7FEE7B1
:10011000FEE7FEE7FEE7FEE7FEE7FEE7110D00085B
:10012000ED000008064C074D06E0E06840F00103D2
:1001300094E8070098471034AC42F6D3FFF7DAFF93
:100140001412000834120008FEE7704770B5044628
:1001500000F0F2F80546601C02D004480078044420
:1001600000F0EAF8401BA042FAD370BD0000002066
:100170002DE9F84FDFF894A100220AF1040B144690
:100180004FF0010C4FF00F090BF1040E0B680CFA45
:1001900004F52B40AB4271D15D4E4F68A7EB0608CA
:1001A000B7422BD00DDC032F34D005DC37B3012F41
:1001B00019D0022F2FD11BE0112F16D0122F2AD1C8
:1001C00019E0B8F5881F19D006DCB8F5803F15D0C6
:1001D000B8F5801F1FD111E0B8F5001F0ED0B8F59B
:1001E000041F18D10AE0CA6815E0CA68121D12E09F
:1001F000CA6808320FE0CA680C320CE08A682AB17B
:10020000012A4FF0080203D0456104E0042202E015
:10021000056100E00022FF2B01D8074601E000F154
:1002200004074FEA840601D9A6F120063D6809FAC1
:1002300006F825EA080502FA06F645EA06053D60D5
:100240004D68ED005CD5334DAE6946F00106AE61F8
:10025000AD6924F0030605F0010500952E4D7719D0
:10026000BD68A607360F09FA06F825EA0805DFF883
:10027000AC80404503D14FF0000810E040E0DFF8CB
:10028000A080404502D14FF0010808E0DFF89480DB
:10029000404502D14FF0020801E04FF0030808FA90
:1002A00006F848EA0508C7F808804D68ED0305D54B
:1002B000DAF800501D43CAF8005004E0DAF8006094
:1002C0009E43CAF800604D68DBF80060AD035D46F0
:1002D00001D51E4300E09E432E604D68DEF80060AD
:1002E000ED02754601D51E4300E09E432E604D6829
:1002F000AD020D4D2E6801D51E4300E09E432E60D9
:10030000641C102CFFF442AFBDE8F88F00040140DC
:1003100000001110001002400000014000080140E0
:10032000000C0140001001400C0401400AB10161C1
:1003300070470904FBE7000001488068704700002F
:1003400000000020024881680278114481607047F3
:1003500000000020074810B5016841F0100101605D
:10036000032000F091F8002000F006F800F024F8D7
:10037000002010BD0020024070B50D4D04464FF422
:100380007A712878B1FBF0F00A490968B1FBF0F006
:1003900000F001FB48B9102C07D200222146501E64
:1003A00000F052F800206C6070BD012070BD0000AC
:1003B000000000200C000020214808B5816941F0B0
:1003C00001018161816901F001010091C16941F080
:1003D0008051C161C06900F080500090032000F09E
:1003E00053F8002211466FF00B0000F02DF80022A8
:1003F00011466FF00A0000F027F8002211466FF056
:10040000090000F021F800221146501F00F01CF8EE
:1004100000221146101F00F017F800221146901E0E
:1004200000F012F800221146501E00F00DF80548A9
:10043000416821F0E06141F00071416008BD0000B9
:100440000010024000000140F0B40E4B1B680C4647
:10045000C3F30223C3F10705042D00D90425191D98
:10046000072901D2002300E0DB1E012606FA05F170
:10047000491E214099409E40761E16403143F0BCF3
:1004800000F000BC0CED00E0064900F0070208682F
:100490004FF6FF03184040EA0220034A1043086069
:1004A000704700000CED00E00000FA052DE9F04770
:1004B000DFF83C8105460E46D8F8000000F0070042
:1004C000B0420CD2D8F8001021F007013143C8F82F
:1004D0000010D8F8000000F00700B04263D128787F
:1004E000444C800705D56068A96820F0F0000843F7
:1004F00060602878C00745D06868012816D0216858
:10050000022816D0890700294DDA616821F003011D
:1005100001436160FFF710FF6968074641F28830C8
:1005200001290FD00229814619D027E021688903CB
:10053000E9E78901E7E700BFFFF7FEFEC11B494578
:1005400001D918E081466068C0F381000128F3D129
:1005500018E000BFFFF7F0FEC11B49450BD86068EB
:10056000C0F381000228F5D10CE000BFFFF7E4FEE4
:10057000C11B494502D90320BDE8F087606810F02F
:100580000C0FF3D1D8F80010404601F00701B1423A
:100590000BD9016821F0070131430160006800F0C8
:1005A0000700B04201D00120E6E72878400705D5D2
:1005B0006068E96820F4E06008436060287800071C
:1005C00006D56068296920F4605040EAC100606087
:1005D00000F01CF86168084AC1F30311515CC8407F
:1005E000064908600020FFF7C7FE0020C4E70000AE
:1005F0000020024000100240041200080C000020FD
:1006000001480068704700000C00002012A185B06E
:100610000FC98DE80F0014A0144A006804905168B7
:10062000134801F00C03042B10D0082B0ED1C1F39A
:100630008343C9031DF803000AD5516804AAC1F316
:100640004041515C0A4A5043B0FBF1F005B070479D
:1006500008494843FAE700000203040506070809B1
:100660000A0B0C0D0E0F10100102000000100240CA
:1006700000127A0000093D002DE9F84F0446007889
:10068000B94DC00748D06868C0F38100012807D081
:100690006868C0F38100022809D16868C00306D5E4
:1006A0002868800338D5606800286FD034E060681F
:1006B000B0F5803F0BD010B1B0F5A02F11D0286855
:1006C00020F480302860286820F4802002E0286828
:1006D00040F480302860606888B1FFF72DFE064640
:1006E00009E0286840F480202860F0E7FFF724FE46
:1006F000801B642875D828688003F7D50CE0FFF7C5
:100700001BFE064605E000BFFFF716FE801B6428AF
:10071000F0D828688003F7D42078944E80074FF0F3
:1007200001094FF000083BD5686810F00C0F07D0A6
:100730006868C0F38100022809D16868C00306D444
:100740002868800714D5206901281FD110E020698E
:10075000B0B1C6F80090FFF7EFFD074605E000BF17
:10076000FFF7EAFDC01B0228C4D828688007F7D528
:100770002868616920F0F80040EAC10028600FE0B5
:10078000C6F80080FFF7D8FD074606E0E9E000BFA5
:10079000FFF7D2FDC01B022823D828688007F7D4B2
:1007A000207800072CD57248A169D9B1C0F8009013
:1007B000FFF7C2FD074604E0FFF7BEFDC01B02289D
:1007C0000FD8686A8007F7D56A484FF4FA51006875
:1007D000B0FBF1F0009000BF0098411E0091FAD2EA
:1007E0000EE080E0C0F80080FFF7A6FD074604E0B9
:1007F000FFF7A2FDC01B022875D8686A8007F7D4EE
:100800002078400760D5E8690027C00008D4E8696F
:1008100040F08050E861E869012700F080500090C6
:1008200055480168C90513D40168834641F48071B5
:100830000160FFF781FD824606E000BFFFF77CFD07
:10084000A0EB0A0064284ED8DBF80000C005F5D5FF
:10085000E06801280AD008B1052813D0286A20F0E2
:1008600001002862286A20F0040002E0286A40F0B3
:1008700001002862E06841F2883B98B1FFF75CFD17
:1008800082460BE0286A40F004002862EEE700BFD1
:10089000FFF752FDA0EB0A0159455AD8286A800794
:1008A000F6D50CE0FFF748FD824605E0FFF744FD72
:1008B000A0EB0A0159454CD8286A8007F6D41FB12D
:1008C000E86920F08050E861E06988B36968C1F3A5
:1008D0008101022945D00228C6F8608004D0FFF7C4
:1008E0002BFD044638E034E0FFF726FD074604E020
:1008F000FFF722FDC01B02282BD828688001F7D4FF
:10090000206AB0F5803F05D16868A16820F4003006
:1009100008436860D4E908010843696821F4741148
:1009200008436860C6F86090FFF706FD044606E0DD
:1009300015E000BFFFF700FD001B022809D828685A
:100940008001F7D50BE000BFFFF7F6FC001B022883
:1009500002D90320BDE8F88F28688001F4D4002074
:10096000F8E70120F6E700000010024000004242D4
:10097000800442420C000020007000404FF0E02153
:100980000428086903D020F004000861704740F093
:100990000400FAE7704710B5401EB0F1807F01D324
:1009A000012010BD4FF0E02460610F21601700F0BE
:1009B00069F90020A06107202061002010BD10B55A
:1009C000FFF7E8FF10BD10B590F83C20012A25D0B4
:1009D000012280F83C20CA688C6822F440722243CD
:1009E0004C6822F4806222430C6822F400622243A5
:1009F0000C6922F4805222434C6922F400522243B3
:100A00008C6922F48042224322F4004102680023D0
:100A10002143516480F83C30002010BD022010BDFD
:100A200030B590F83C20012A20D0012280F83C20EB
:100A3000022380F83D3003685C6824F070045C6039
:100A400003685C680D682C435C6003689C6824F054
:100A500080049C6003689C6849680C439C6080F833
:100A60003D20002180F83C10084630BD022030BDFA
:100A70001FB500680649884208D180150090022001
:100A80000190039069460348FFF772FB1FBD000009
:100A9000002C01400008014070B5044690F83C006D
:100AA0000D4601280DD0012684F83C60022084F810
:100AB0003D0042B1042A18D0082A2AD00C2A4DD170
:100AC00039E0022070BD206800F080F9206881695B
:100AD00041F0080181612068816921F00401816190
:100AE000206881692A69114311E0206800F096F9B5
:100AF0002068816941F4006181612068816921F485
:100B000080618161206881692A6941EA02218161ED
:100B100024E0206800F0AEF92068C16941F00801C6
:100B2000C1612068C16921F00401C1612068C16907
:100B30002A69114311E0206800F0C8F92068C169F2
:100B400041F40061C1612068C16921F48061C16123
:100B50002068C1692A6941EA0221C16184F83D60C7
:100B6000002084F83C0070BD10B5040003D094F858
:100B70003D0010B107E0012010BD002084F83C00CA
:100B8000204600F00DF8022084F83D00211D206869
:100B900000F0E2F8012084F83D00002010BD0000C4
:100BA00008B500680649884208D10648816941F4C1
:100BB00000618161806900F40060009008BD000060
:100BC000002C01400010024010B5044600680122CC
:100BD00000F0F0F807492068884203D1416C41F4E5
:100BE000004141642068016841F00101016000207A
:100BF00010BD0000002C0140FEE7000010B51F48AA
:100C000090B01D4901609F210024C0E9011440F209
:100C1000E731C0E9031444618461FFF7A5FF00B127
:100C2000FEE70E940EA915480F94FFF7F9FE00B1E8
:100C3000FEE76020CDE90004029403940494059437
:100C4000002269460D480694FFF726FF00B1FEE733
:100C50000794089409944FF400500A94CDE90B408E
:100C600007A906480D94FFF7AEFE00B1FEE7034862
:100C7000FFF7FEFE10B010BD002C01401000002058
:100C8000FEE770470907090E002806DA00F00F009A
:100C900000F1E02080F8141D704700F1E02080F89A
:100CA000001470477047704710B5FFF74BFBBDE865
:100CB0001040FFF784BE10B590B0022000900120D4
:100CC000049010200024059007946846FFF7D4FC98
:100CD00000B1FEE70F20CDE90A040C940D94002129
:100CE0000AA80E94FFF7E2FB00B1FEE7FFF788FCCD
:100CF0004FF47A71B0FBF1F0FFF74DFE0420FFF7DF
:100D00003DFE00221146501EFFF79EFB10B010BDA5
:100D10000D48016841F00101016041680B4A114032
:100D2000416001680A4A11400160016821F4802194
:100D30000160416821F4FE0141604FF41F018160B0
:100D40000449C00308607047001002400000FFF82B
:100D5000FFFFF6FE08ED00E070B50268134B144C7F
:100D60004FF08046984203D0B04201D0A04203D158
:100D700022F070054A682A43984203D0B04201D05D
:100D8000A04203D122F44074CA68224322F08004B6
:100D90004A69224302608A68C2620A688262984293
:100DA00001D1096901630121416170BD002C01403D
:100DB0000004004010B50123046A8B409C43046288
:100DC000036A8A401343036210BD000030B5026A13
:100DD00022F001020262026A4368846924F073050A
:100DE0000C682C4322F002058A682A430A4DA84267
:100DF0000BD122F00805CA6823F440732A434D69D9
:100E000022F004021D438B692B43436084614968CF
:100E10004163026230BD0000002C014030B5026A1F
:100E200022F010020262026A436884690D6824F4A9
:100E3000E64444EA05248D6822F0200242EA0512C5
:100E40000B4DA8420ED1CD6822F0800242EA051275
:100E50004D6923F4406343EA85038D6922F0400223
:100E600043EA85034360846149688163026230BD5F
:100E7000002C014030B5026A22F480720262036ADB
:100E80004268C46923F4007324F073050C682C4392
:100E90008D6843EA05230C4DA8420ED1CD6823F49A
:100EA000006343EA05234D6922F4405242EA0512E9
:100EB0008D6923F4806342EA05124260C461496887
:100EC000C163036230BD0000002C014030B5026AEE
:100ED00022F480520262046A4268C3690D6823F4F6
:100EE000E64343EA05238D6824F4005444EA0534BC
:100EF000064DA84204D14D6922F4804242EA85128F
:100F00004260C36149680164046230BD002C014045
:100F1000FEE702E008C8121F08C1002AFAD1704794
:100F20007047002001E001C1121F002AFBD1704769
:100F300010B5044600F078F82007000E00F074F8B1
:100F4000BDE810400120FFF701B9000010B50446CC
:100F500000224FF480510448FFF7E8F92046BDE82D
:100F60001040FFF7E5BF0000000C014010B500F095
:100F7000ADF82B4C00224FF480512046FFF7D6F9F4
:100F8000002261142046FFF7D1F900224FF480417E
:100F90002046FFF7CBF9234C002210212046FFF713
:100FA000C5F9002220212046FFF7C0F90022402188
:100FB0002046FFF7BBF9002280212046FFF7B6F953
:100FC0000F20FFF7C3F8302000F02EF80520FFF7C0
:100FD000BDF8302000F028F80120FFF7B7F83020E6
:100FE00000F022F80120FFF7B1F8202000F01CF8F3
:100FF0006420FFF7ABF82820FFF7A8FF0C20FFF7CD
:10100000A5FF0620FFF7A2FF0120FFF79FFF0220A8
:10101000FFF79CFFBDE810406420FFF797B8000081
:10102000000C01400008014070B5264E0446002225
:101030004FF400513046FFF779F9234D002210217B
:101040002846FFF773F92009C00704D001221021B8
:101050002846FFF76BF9002220212846FFF766F9A2
:101060006009C00704D0012220212846FFF75EF95D
:10107000002240212846FFF759F9A009C00704D0F3
:10108000012240212846FFF751F9002280212846FD
:10109000FFF74CF9E00904D0012280212846FFF730
:1010A00045F90122940321463046FFF73FF901201C
:1010B000FFF74CF821463046BDE870400022FFF7AC
:1010C00035B90000000C0140000801407FB54FF425
:1010D00080500124CDE900041C4E03256946039588
:1010E0003046FFF745F86003CDE9000469460395F3
:1010F0003046FFF73DF8A003CDE9000469460395AB
:101100003046FFF735F81020CDE90004104E69464F
:1011100003953046FFF72CF82020CDE900046946FE
:1011200003953046FFF724F84020CDE900046946D6
:1011300003953046FFF71CF88020CDE9000469468E
:1011400003953046FFF714F87FBD0000000C014006
:101150000008014010B50446012211030348FFF7BF
:10116000E5F82046BDE81040FFF7E2BE000C014064
:1011700010B5044603E000BFFFF7ECFF641C2078C5
:101180000028F9D110BD000086B0FFF7E3F8FFF7A3
:1011900092FD1648816941F004018161816901F085
:1011A00004010491816941F0080181618069694607
:1011B00000F0080004904FF4C0500090002001900F
:1011C00002900B48FEF7D4FFFFF718FDFFF7CEFEA5
:1011D00008A0FFF7CDFF00210948FFF7F5FC0849FB
:1011E00040F2B13009684863FEE700000010024099
:1011F0000008014058696E206368616F00000000BC
:1012000010000020000000000000000001020304A4
:101210000607080934120008000000201000000032
:10122000120F0008441200081000002040040000C3
:10123000220F000801000000100000000000000064
:0412400000A24A04BA
:04000005080000ED02
:00000001FF
