:020000040800F2
:1000000068040020010100080F18000847170008C5
:100010000D18000875080008F51800080000000019
:10002000000000000000000000000000331800087D
:100030007708000800000000311800083518000893
:100040001B0100081B0100081B0100081B01000820
:100050001B0100081B0100081B0100081B01000810
:100060001B0100081B0100081B0100081B01000800
:100070001B0100081B0100081B0100081B010008F0
:100080001B0100081B0100081B0100081B010008E0
:100090001B0100081B0100081B0100081B010008D0
:1000A0001B0100081B0100081B0100081B010008C0
:1000B0001B0100081B010008000000001B010008D4
:1000C0001B01000800000000000000001B010008E8
:1000D000000000001B0100081B01000800000000D8
:1000E0001B0100081B0100081B010008DFF80CD0F1
:1000F00000F02EFB004800476D2400086804002033
:100100000648804706480047FEE7FEE7FEE7FEE7B1
:10011000FEE7FEE7FEE7FEE7FEE7FEE7AD180008B4
:10012000ED000008202A04DB203A21FA02F0002129
:10013000704721FA02F3D040C2F1200291400843F7
:100140001946704730B480EA010202F0004530F0F1
:10015000004221F0004013D090B1C30DD40DC2F382
:100160001601C0F31600E41A41F4000140F4000245
:100170007D34914201D3641C00E04900002C02DA76
:1001800030BC002070474FF400000023914201D39F
:10019000891A034340084FEA4101F7D151B1914216
:1001A00002D14FF0004105E002D24FF0010101E021
:1001B0006FF0010103EBC450284430BC00F0EDB8EF
:1001C0002DE9FE4F81EA030404F0004421F00041D0
:1001D00000944FF0000B23F0004350EA01045ED07E
:1001E00052EA03045BD0C3F30A54C1F30A552C440A
:1001F000A4F2F3340194A0FB0254C1F3130141F4BF
:100200008011C3F3130343F4801301FB024400FB8A
:10021000034E840A970A44EA815447EA8357A4FBB1
:10022000076802958D0A05FB07854FEA932C04FBAE
:100230000C542705029D4FEA065847EA1637B5EBDE
:1002400008056EEB070C870E920E47EA811742EA0B
:100250008312A7FB0201B6EB0B0164EB00042B0D2C
:1002600043EA0C335E1844EB1C50DA465146E7FB78
:100270000201C5F313044FEA0B3343EA14534FEA68
:100280000432019C43EA0603A4F10C040294009C8E
:10029000CDE900B400F0C7F803B0BDE8F08F00204E
:1002A0000146F9E796230022114600F07FB800F0DE
:1002B000004230F000400AD0C10D01F56071C0F37A
:1002C000160042EA0151C20840071143704700205E
:1002D0000146704701F0004330B421F0004150EA7C
:1002E000010206D00A0DA2F56072C1F31301002AC3
:1002F00002DC30BC00207047440F44EAC104C10056
:10030000E01830BC00EBC25000F047B830B50B46E7
:10031000014600202022012409E021FA02F59D4235
:1003200005D303FA02F5491B04FA02F52844151E09
:10033000A2F10102F1DC30BD2DE9F05F054600209D
:1003400092469B4688460646814640241BE0284646
:10035000414647462246FFF7E5FE53465A46C01A35
:10036000914110D311461846224600F003FA2D1A87
:1003700067EB01084F4622460120002100F0FAF900
:1003800017EB00094E41201EA4F10104DFDC4846B2
:1003900031462A464346BDE8F09F0029A8BF704772
:1003A000401C490008BF20F00100704710B4B0FAAB
:1003B00080FC00FA0CF050EA010404BF10BC704746
:1003C00049B1CCF1200421FA04F411FA0CF118BF60
:1003D000012121430843A3EB0C01CB1D4FEA00612F
:1003E0004FEA102042BF002010BC704700EBC35002
:1003F00010440029A4BF10BC7047401C490008BF2E
:1004000020F0010010BC704710B5141E73F10004F9
:1004100008DA401C41F1000192185B411A4301D1F6
:1004200020F0010010BD2DE9F04D92469B4611B120
:10043000B1FA81F202E0B0FA80F22032904600F088
:1004400099F904460F4640EA0A0041EA0B01534677
:100450005A46084313D0114653EA010019D0C8F197
:1004600040025046FFF75EFE05460E46504659468E
:10047000424600F07FF9084305D0012004E0204601
:100480003946BDE8F08D0020054346EAE0762C436E
:1004900037430A986305E40AA0EB08000022FD0A2E
:1004A00044EA47540A3002D500200146E9E7010535
:1004B00010196941DDE9084500196941BDE8F04DB1
:1004C000A2E72DE9FE4F804681EA0300C00F0C46EB
:1004D000009021F0004123F00045B8EB0200A94153
:1004E00005D24046214690461C460B46024623F064
:1004F0000040104347D0270DC7F30A00C3F30A5149
:100500000290401A019040286BDAC3F3130040F4C4
:10051000801B0098924620B10023D2EB030A63EBC4
:100520000B0B01985946C0F14002504600F022F9E9
:1005300006460D4650465946019A00F02AF910EB3E
:1005400008006141002487EA115284EAE7731A43E4
:1005500040D0009A62B3019A012A4FEA075215DC93
:10056000001B61EB02014FF0004202EA0752CDE9A5
:100570000042001C41F5801132462B46FFF753FF25
:1005800003B0BDE8F08F40462146F9E7001B61EB60
:100590000201001C41F5801300185B412018A2F5F0
:1005A000001747EB030140EAD570B6196D4111E021
:1005B0006D084FEA360645EAC0754FEA0752001B40
:1005C00061EB0201001C41F5801149084FEA30003F
:1005D0000019514132462B4603B0BDE8F04FFFF7FA
:1005E00013BF0098012240000023D0EB020263EB0E
:1005F000E073009821464FEAE074B8EB000061EB2D
:100600000401E9E783F000435BE781F0004158E72C
:100610002DE9F04D81EA030404F0004B21F0004580
:1006200014464FF0000A23F0004150EA050220D0A2
:1006300054EA01021DD0C5F30A570246C5F313035D
:10064000C1F31300C1F30A5640F4801543F480133C
:10065000A7EB0608101BD64608F2FD3873EB050021
:1006600002D308F1010801E092185B41B8F1000FD4
:1006700003DA00200146BDE8F08D00204FF4801120
:10068000064684460EE0171B73EB050705D3121BC5
:1006900063EB050306434CEA010C49084FEA3000BE
:1006A00092185B4150EA0107EDD152EA030012D0E3
:1006B00082EA040083EA0501084305D0101BAB4120
:1006C00006D20122002306E000224FF0004302E0A0
:1006D0006FF0010253101AEB06004CEB085110EBBF
:1006E0000A0041EB0B01BDE8F04DFFF78DBEC1F3F1
:1006F0000A52C1F3130140F2FF3341F480119A42D0
:1007000002DA00200146704740F233439A42A2F2D7
:10071000334202DC5242FFF705BD00F02BB8000067
:1007200030B5041E71F1000404DB4FF00044404278
:1007300064EB0101141E73F1000405DB1C464FF04D
:100740000043524263EB0403994208BF904230BD1C
:10075000064C074D06E0E06840F0010394E807000E
:1007600098471034AC42F6D3FFF7C4FC5C25000870
:100770007C250008202A04DB203A00FA02F1002040
:1007800070479140C2F1200320FA03F319439040CF
:100790007047202A06DBCB17203A41FA02F043EAE1
:1007A000E07306E041FA02F3D040C2F1200291402A
:1007B000084319467047000070B504460068816818
:1007C000C943C9071CD1816821F00101816000F093
:1007D00089FB05460FE000BF00F084FB401B0228A8
:1007E00009D9A06A40F01000A062E06A40F0010060
:1007F000E062012070BD20688068C043C007EBD074
:10080000002070BDF8B50026044600960068816897
:10081000C943C90728D0816841F0010181601348AC
:1008200013490068B0FBF1F000E0401E0090002882
:10083000FBD100F057FB054611E000BF00F052FB72
:10084000401B02280BD9A06A40F01000A062E06AA9
:1008500040F00100E06284F824600120F8BD2068C7
:100860008068C043C007E9D10020F8BD1400002013
:1008700040420F00FEE77047F8B50024009490F85E
:1008800024202546012A12D0012280F824204A681B
:100890001F23072A0DD20668776B521E02EB8202D5
:1008A00093409F430B6893401F43776319E00220F6
:1008B000F8BD06680D2A0AD2376BD21F02EB8202FE
:1008C00093409F430B6893401F43376309E0F76AE7
:1008D0000D3A02EB820293409F430B6893401F4303
:1008E000F7620A68072306680A2A0AD3F7680A3AF1
:1008F00002EB420293409F438B6893401F43F76093
:1009000008E0376902EB420293409F438B689340B3
:100910001F4337610A68102A01D0112A20D1124BD7
:1009200002689A4217D193681B0219D4936843F462
:10093000000393600968102912D10C490C4A096818
:10094000B1FBF2F101EB8101490000E0491E009189
:100950000029FBD104E0816A41F020018162012479
:1009600080F824502046F8BD0024014014000020E7
:1009700040420F000068C06C704700002DE9F04154
:100980004FF0000704003D467ED0A06A002628B93B
:10099000E66284F82460204600F07EF82046FFF7E7
:1009A0000BFFA16AC90600D420B1A06A40F0100074
:1009B000A06269E0A16A21F4885141F00201A162BC
:1009C0006268E169E3680A4347EA43010A43A168B0
:1009D0004FF48077B94209D0012907D05FF00001B8
:1009E000D4F814C0BCF1010F02D00AE03946F7E791
:1009F000F3B1A36A43F02003A362E36A43F0010367
:100A0000E3622368D3F804C02CF4694C4CEA010C6F
:100A1000C3F804C021688B68DFF870C003EA0C03D8
:100A200013438B60A168B9420BD0012909D00CE0B7
:100A3000DFF85CC0A3690CEB43330B4343F4006164
:100A4000DFE7218A0D05A5F580152168CB6A23F41F
:100A500070032B43CB62216889680E4B1940914289
:100A600008D1E662A16A21F0020141F00101A16210
:100A7000BDE8F081A06A20F0020040F01000A06202
:100A8000E06A40F00100E0620120F1E7FDF7E1FFDC
:100A900000E0FFFFFE0E1FFF00B500680A4985B0A9
:100AA00088420FD10948816941F4007181618069F0
:100AB000694600F4007004900320009001900448FF
:100AC00000F02CF905B000BD0024014000100240E8
:100AD000000801402DE9F84300260D460446009623
:100AE00000F000FA804620688168C90508D5A06A30
:100AF00040F02000A06284F824600120BDE8F88363
:100B00004168C90503D4C06A10F4700F26D00220D2
:100B100000F0A2FA38490968B1FBF0F720680369D0
:100B200036490B424FEA61014FEAA1121BD1C3685B
:100B30004FEA611C13EA0C0F15D103690B4221D156
:100B4000C06810421ED114201FE0681C06D045B3B7
:100B500000F0C8F9A0EB0800A84222D8206800687D
:100B60008007F2D52AE003690B4202D1C168114225
:100B700006D0026922490A4206D1C068084203D160
:100B8000542002E0292000E0FC204743009813E0B5
:100B9000681C0ED02DB100F0A5F9A0EB0800A8420A
:100BA00007D9A06A40F00400A06284F82460032002
:100BB000A4E70098401C0090B842E9D321686FF088
:100BC00012000860A06A40F40070A062206880688B
:100BD000C0F3424007280CD1E06850B9A06A20F465
:100BE0008070A062A06AC00403D4A06A40F0010033
:100BF000A062002082E70000140000202449922413
:100C00004992240070B5044690F8240001280DD0C4
:100C1000012084F824002046FFF7F4FD02004FF085
:100C2000000005D084F82400104670BD022070BD7D
:100C3000A16A40F20123994341F48071A1621F4DE2
:100C400023681F49AB4218D10E6816F4702F14D0D8
:100C5000A66A46F48016A6620E68760505D5A66AD1
:100C600026F4005646F48056A662A66AF6040AD513
:100C7000E66A26F00606E66206E0A66A26F4801614
:100C8000A6625E68E9E7E06284F824006FF0020083
:100C9000186020688368C3F34243072B05D1A8423C
:100CA00008D1096811F4702F04D0816841F48011D3
:100CB0008160B9E7816841F4A001F9E700280140AB
:100CC0000424014010B5044690F82400012807D000
:100CD000012084F824002046FFF76EFD10B107E0E4
:100CE000022010BDA16A21F4885141F00101A162E6
:100CF000002184F8241010BD70B5044600F0F2F80D
:100D00000546601C02D004480078044400F0EAF86C
:100D1000401BA042FAD370BD080000202DE9F84F17
:100D2000DFF894A100220AF1040B14464FF0010CE5
:100D30004FF00F090BF1040E0B680CFA04F52B4071
:100D4000AB4271D15D4E4F68A7EB0608B7422BD07E
:100D50000DDC032F34D005DC37B3012F19D0022F5F
:100D60002FD11BE0112F16D0122F2AD119E0B8F580
:100D7000881F19D006DCB8F5803F15D0B8F5801F64
:100D80001FD111E0B8F5001F0ED0B8F5041F18D11F
:100D90000AE0CA6815E0CA68121D12E0CA68083283
:100DA0000FE0CA680C320CE08A682AB1012A4FF0C1
:100DB000080203D0456104E0042202E0056100E07E
:100DC0000022FF2B01D8074601E000F104074FEA9B
:100DD000840601D9A6F120063D6809FA06F825EA3D
:100DE000080502FA06F645EA06053D604D68ED0085
:100DF0005CD5334DAE6946F00106AE61AD6924F0B5
:100E0000030605F0010500952E4D7719BD68A6076C
:100E1000360F09FA06F825EA0805DFF8AC804045E8
:100E200003D14FF0000810E040E0DFF8A08040451B
:100E300002D14FF0010808E0DFF89480404502D16C
:100E40004FF0020801E04FF0030808FA06F848EAFC
:100E50000508C7F808804D68ED0305D5DAF800509D
:100E60001D43CAF8005004E0DAF800609E43CAF857
:100E700000604D68DBF80060AD035D4601D51E43A0
:100E800000E09E432E604D68DEF80060ED0275467E
:100E900001D51E4300E09E432E604D68AD020D4D0E
:100EA0002E6801D51E4300E09E432E60641C102C6A
:100EB000FFF442AFBDE8F88F0004014000001110BC
:100EC000001002400000014000080140000C0140F9
:100ED000001001400C0401400AB10161704709048F
:100EE000FBE7000001488068704700000800002010
:100EF0000248816802781144816070470800002030
:100F0000074810B5016841F010010160032000F0AE
:100F100091F8002000F006F800F024F8002010BD41
:100F20000020024070B50D4D04464FF47A712878C8
:100F3000B1FBF0F00A490968B1FBF0F000F0EBFBFF
:100F400048B9102C07D200222146501E00F052F85A
:100F500000206C6070BD012070BD00000800002002
:100F600014000020214808B5816941F00101816128
:100F7000816901F001010091C16941F08051C161B5
:100F8000C06900F080500090032000F053F8002268
:100F900011466FF00B0000F02DF8002211466FF0A3
:100FA0000A0000F027F8002211466FF0090000F057
:100FB00021F800221146501F00F01CF800221146B3
:100FC000101F00F017F800221146901E00F012F8D2
:100FD00000221146501E00F00DF80548416821F02E
:100FE000E06141F00071416008BD00000010024066
:100FF00000000140F0B40E4B1B680C46C3F3022303
:10100000C3F10705042D00D90425191D072901D2B4
:10101000002300E0DB1E012606FA05F1491E2140EF
:1010200099409E40761E16403143F0BC00F0F0BB64
:101030000CED00E0064900F0070208684FF6FF03D8
:10104000184040EA0220034A10430860704700003D
:101050000CED00E00000FA0510B529A401461DCCF6
:1010600086B08DE81D002AA02A4C0068049000205C
:10107000012923D002293AD010291DD161682268A4
:10108000D20119D5C1F38342C9031DF8020009D565
:10109000616804AAC1F34041515C1F4AB2FBF1F1FF
:1010A000484301E01D4948436168490204D44000B7
:1010B0005FF00301B0FBF1F006B010BD226AC2F38D
:1010C0000121012903D1920701D5C803F4E70229C0
:1010D00005D1626A920702D549F64040ECE7032940
:1010E000EAD121688903E7D54FF22440E4E700F014
:1010F0003DF96168C1F38131491C4900DAE700001C
:1011000002030405060708090A0B0C0D0E0F101048
:10111000010200000010024000127A0000093D00A8
:101120002DE9F84305460078354CC00754D0E069F6
:101130000026C00008D4E06940F08050E061E0691A
:10114000012600F0805000902E480168C90512D495
:101150000168804641F480710160FFF7C3FE0746D5
:1011600005E000BFFFF7BEFEC01B642823D8D8F8F7
:101170000000C005F6D5206A10F4407021D0A9887F
:1011800001F4407181421CD0206A1F49012220F4E1
:1011900040700A6000220A602062C00711D0FFF789
:1011A000A1FE074641F2883808E000BFFFF79AFE2B
:1011B000C11B414502D90320BDE8F883206A80079E
:1011C000F4D5206A696820F44070084320621EB19B
:1011D000E06920F08050E0612878800705D56068DC
:1011E000A96820F44040084360602878C00605D50F
:1011F0006068E96820F48000084360600020DBE755
:101200000010024000700040400442422DE9F047C7
:10121000DFF83C8105460E46D8F8000000F00700D4
:10122000B0420CD2D8F8001021F007013143C8F8C1
:101230000010D8F8000000F00700B04263D1287811
:10124000444C800705D56068A96820F0F000084389
:1012500060602878C00745D06868012816D02168EA
:10126000022816D0890700294DDA616821F00301B0
:1012700001436160FFF736FE6968074641F2883036
:1012800001290FD00229814619D027E0216889035E
:10129000E9E78901E7E700BFFFF724FEC11B4945E5
:1012A00001D918E081466068C0F381000128F3D1BC
:1012B00018E000BFFFF716FEC11B49450BD8606858
:1012C000C0F381000228F5D10CE000BFFFF70AFE51
:1012D000C11B494502D90320BDE8F087606810F0C2
:1012E0000C0FF3D1D8F80010404601F00701B142CD
:1012F0000BD9016821F0070131430160006800F05B
:101300000700B04201D00120E6E72878400705D564
:101310006068E96820F4E0600843606028780007AE
:1013200006D56068296920F4605040EAC100606019
:1013300000F02CF86168084AC1F30311515CC84001
:10134000064908600020FFF7EDFD0020C4E700001B
:101350000020024000100240442500081400002034
:101360000148006870470000140000200448054947
:1013700000684968044AC1F3C221515CC840704703
:1013800014000020001002405425000812A185B06E
:101390000FC98DE80F0014A0144A0068049051682A
:1013A000134801F00C03042B10D0082B0ED1C1F30D
:1013B0008343C9031DF803000AD5516804AAC1F389
:1013C0004041515C0A4A5043B0FBF1F005B0704710
:1013D00008494843FAE70000020304050607080924
:1013E0000A0B0C0D0E0F101001020000001002403D
:1013F00000127A0000093D002DE9F84F04460078FC
:10140000B94DC00748D06868C0F38100012807D0F3
:101410006868C0F38100022809D16868C00306D556
:101420002868800338D5606800286FD034E0606891
:10143000B0F5803F0BD010B1B0F5A02F11D02868C7
:1014400020F480302860286820F4802002E028689A
:1014500040F480302860606888B1FFF743FD06469D
:1014600009E0286840F480202860F0E7FFF73AFDA3
:10147000801B642875D828688003F7D50CE0FFF737
:1014800031FD064605E000BFFFF72CFD801B6428F8
:10149000F0D828688003F7D42078944E80074FF066
:1014A00001094FF000083BD5686810F00C0F07D019
:1014B0006868C0F38100022809D16868C00306D4B7
:1014C0002868800714D5206901281FD110E0206901
:1014D000B0B1C6F80090FFF705FD074605E000BF74
:1014E000FFF700FDC01B0228C4D828688007F7D585
:1014F0002868616920F0F80040EAC10028600FE028
:10150000C6F80080FFF7EEFC074606E0E9E000BF02
:10151000FFF7E8FCC01B022823D828688007F7D40F
:10152000207800072CD57248A169D9B1C0F8009085
:10153000FFF7D8FC074604E0FFF7D4FCC01B0228E5
:101540000FD8686A8007F7D56A484FF4FA510068E7
:10155000B0FBF1F0009000BF0098411E0091FAD25C
:101560000EE080E0C0F80080FFF7BCFC074604E016
:10157000FFF7B8FCC01B022875D8686A8007F7D44B
:101580002078400760D5E8690027C00008D4E869E2
:1015900040F08050E861E869012700F08050009039
:1015A00055480168C90513D40168834641F4807128
:1015B0000160FFF797FC824606E000BFFFF792FC50
:1015C000A0EB0A0064284ED8DBF80000C005F5D572
:1015D000E06801280AD008B1052813D0286A20F055
:1015E00001002862286A20F0040002E0286A40F026
:1015F00001002862E06841F2883B98B1FFF772FC75
:1016000082460BE0286A40F004002862EEE700BF43
:10161000FFF768FCA0EB0A0159455AD8286A8007F1
:10162000F6D50CE0FFF75EFC824605E0FFF75AFCBA
:10163000A0EB0A0159454CD8286A8007F6D41FB19F
:10164000E86920F08050E861E06988B36968C1F317
:101650008101022945D00228C6F8608004D0FFF736
:1016600041FC044638E034E0FFF73CFC074604E068
:10167000FFF738FCC01B02282BD828688001F7D45C
:10168000206AB0F5803F05D16868A16820F4003079
:1016900008436860D4E908010843696821F47411BB
:1016A00008436860C6F86090FFF71CFC044606E03B
:1016B00015E000BFFFF716FC001B022809D82868B8
:1016C0008001F7D50BE000BFFFF70CFC001B0228E0
:1016D00002D90320BDE8F88F28688001F4D40020E7
:1016E000F8E70120F6E70000001002400000424247
:1016F0008004424214000020007000404FF0E021BE
:101700000428086903D020F004000861704740F005
:101710000400FAE7704710B5401EB0F1807F01D396
:10172000012010BD4FF0E02460610F21601700F030
:101730006FF80020A06107202061002010BD10B5C7
:10174000FFF7E8FF10BDFEE73EB50F4800240D4946
:101750008460C46044610160012505614FF460212B
:101760004460C161FFF70AF900B1FEE7CDE9004529
:10177000694605480294FFF77FF8002800D0FEE78D
:101780003EBD000000240140180000202DE9F04378
:101790001B4885B0816941F004018161816901F0D4
:1017A00004010491816941F0080181618069DFF8D9
:1017B000548000F0080004900022F0214046FFF71A
:1017C0008BFBDFF844904FF4E0470022394648464F
:1017D000FFF782FBF0200124002502268DE871002E
:1017E00069464046FFF79AFA01AA009782E870001E
:1017F00069464846FFF792FA05B0BDE8F08300005D
:101800000010024000080140000C0140FEE7704754
:101810000907090E002806DA00F00F0000F1E020A9
:1018200080F8141D704700F1E02080F80014704724
:101830007047704710B5FFF75BFBBDE81040FFF73E
:101840007EBF30B593B00120022504900095102092
:101850000024059007946846FFF7CEFD00B1FEE72F
:101860000F20CDE90A040C940D9400210AA80E94CF
:10187000FFF7CCFC00B1FEE70FA80F951194FFF71E
:101880004FFC00B1FEE7FFF76BFD4FF47A71B0FB40
:10189000F1F0FFF740FF0420FFF730FF0022114670
:1018A000501EFFF7A7FB13B030BD00000D480168C4
:1018B00041F00101016041680B4A1140416001683B
:1018C0000A4A11400160016821F4802101604168E9
:1018D00021F4FE0141604FF41F0181600449C003FF
:1018E00008607047001002400000FFF8FFFFF6FE9E
:1018F00008ED00E0FEE700000FB4084B10B504A9A6
:1019000002AA039800F0DEF8044602A9002000F0C5
:1019100070FC204610BC5DF814FB0000F3210008A9
:1019200002E008C8121F08C1002AFAD170477047A8
:10193000002001E001C1121F002AFBD17047000006
:101940002DE9FF5F82B00021DDE90430020DDDF8F2
:1019500040B0034318D044F61050A2F2FF32424385
:101960001514119801281FD0A5EB0B00401C5FEA4D
:10197000000A4FF000064E4FDFF83891B04650464F
:1019800015D5CAF1000413E0119801244AA30128D7
:1019900001D16FEA0B010298119AC0E90031C0E948
:1019A000024206B0BDE8F09FCBF10000DFE704463D
:1019B0000021404A491842EB0450CDE9001012E0E2
:1019C000E00707D032463B4640464946FEF7F8FB63
:1019D0008046894632463B4610461946FEF7F0FBE4
:1019E00006460F466410002CEAD1DDE90401DDE96A
:1019F0000023BAF1000F06DAFEF7E2FB42464B463F
:101A0000FEF7DEFB05E0FEF703FE42464B46FEF71F
:101A1000FFFD04460E460022284BFEF781FE03D848
:101A20004FF0FF30014607E00022254B20463146AB
:101A3000FEF747FDFEF75BFE102409E0002C0ADBF1
:101A40000A220023FEF778FC039B30321A55641EED
:101A500050EA0102F2D1641C039AC4F11103144448
:101A6000119A012A03D0012208430DD10AE008434C
:101A700004D000204FF0110B119072E7A3EB0B057F
:101A80006D1E0DE05B4504DD4FF0000205F1010520
:101A900004E003DA4FF00002A5F10105002AECD0C2
:101AA00002981199C0E90231C0E9004579E70000C8
:101AB000000014400000F03F300000000000F04340
:101AC0000000E03F2DE9FF4F95B09B468946064652
:101AD00000250FE2252877D100242746F84A012166
:101AE000059400E0044316F8013F203B01FA03F09F
:101AF0001042F7D130782A2811D06FF02F033078B8
:101B0000A0F13002092A16D8059A44F0020402EB2B
:101B1000820203EB42021044761C0590EFE759F86D
:101B2000042B0592002A03DA504244F40054059035
:101B300044F00204761C30782E2816D116F8010FD6
:101B400044F004042A280DD06FF02F023078A0F161
:101B50003003092B09D807EB870302EB4303C718AF
:101B6000761CF3E759F8047B761C30786C280FD08C
:101B700006DC4C2817D068280DD06A2814D104E060
:101B8000742810D07A280FD10DE044F400140AE034
:101B900044F4801401E044F440147278824202D18B
:101BA00004F58014761C761C307866280BD013DC84
:101BB000582877D009DC002875D04528F6D046286B
:101BC000F4D047281AD19DE118E0632835D0642865
:101BD00079D0652812D195E1702873D008DC672888
:101BE000F1D069286FD06E280DD06F2806D1B5E0EE
:101BF00073282CD0752875D0782874D05A46179938
:101C000090476D1C75E1C4F30250022809D00328E7
:101C10000DD0D9F8001004280DD00D6009F1040989
:101C200067E1D9F80010EA17C1E90052F6E7D9F8E0
:101C300000100D80F2E70D70F0E719F8041B8DF825
:101C4000001000208DF80100EA46012003E059F859
:101C500004AB4FF0FF3061074FF0000102D40DE0FC
:101C600008F101018846B9420FDA8045F8DB1AF81D
:101C700008100029F4D108E008F1010188468142EA
:101C8000FADB1AF808100029F6D105985B46A0EB9C
:101C9000080721463846179A00F094FA284400EBCA
:101CA000080507E04DE029E10DE01AF8010B5A465E
:101CB00017999047B8F10108F7D25B46214638469C
:101CC000179A13E142E00A220092C4F302524FF045
:101CD000000A022A08D059F804CB032A4FEAEC7113
:101CE0000AD00DE029E02AE009F1070121F00702FE
:101CF000F2E802C1914609E00FFA8CFC4FEAEC7160
:101D0000042A03D14FFA8CFC4FEAEC71002907DA60
:101D10000A460021DCF1000C61EB02012D2202E0F9
:101D2000220504D52B228DF80420012203E0E207CE
:101D300001D02022F7E7904659E00A2102E0102264
:101D40000DE010214FF0000A00910BE010224FF03F
:101D5000000A44F004040827009203E008224FF030
:101D6000000A0092C4F30252022A05D059F804CBAB
:101D70000021032A08D009E009F1070121F0070238
:101D8000F2E802C1914605E01FFA8CFC042A01D159
:101D90000CF0FF0C4FF00008220728D5702806D061
:101DA000009B83F0100353EA0A0305D00EE04022A3
:101DB0008DF80420012208E05CEA010206D03022FE
:101DC0008DF804208DF8050002229046009B83F0D8
:101DD000080353EA0A030AD15CEA010201D162074F
:101DE00005D530228DF804204FF001087F1E5828B9
:101DF00004D034A003900EA802900DE036A0F9E7BD
:101E000053466046009AFEF797FA84460398825C30
:101E10000298401E029002705CEA0100F0D1029824
:101E200006A9081A00F1200A600702D524F48034BC
:101E300000E00127574502DDA7EB0A0000E0002083
:101E400000EB0A01009005984144401A0590E00318
:101E500006D45B462146179A059800F0B3F905446D
:101E6000002706E001A85A46C05D179990476D1CEF
:101E70007F1C4745F6DBE0030CD55B462146179AED
:101E8000059800F09FF9054404E030205A46179960
:101E900090476D1C0099481E00900029F5DC08E071
:101EA000029802995A460078491C02911799904766
:101EB0006D1CBAF10001AAF1010AF1DC65E1000034
:101EC0000928010030313233343536373839616210
:101ED00063646566000000003031323334353637D4
:101EE00038394142434445460000000000F058F9AB
:101EF0000544761C307800287FF4ECAD19B02846F4
:101F0000BDE8F08F620700D4062709F1070222F02E
:101F1000070CFCE80223E14603F000485FEA080CE6
:101F200002D00FF2702C0DE05FEA045C02D50FF2D4
:101F3000682C07E05FEAC47C02D00FF2602C01E05D
:101F4000AFF2700C4FF0FF3823F00043CDF850C0D3
:101F500065280CD006DC452809D046281DD0472826
:101F60003DD13DE0662818D067287ED138E00021B9
:101F7000112F01DB112000E0781CCDE9000106A93A
:101F80000EA8FFF7DDFCDDE90F010E9A0391002199
:101F9000009207F1010A04914DE04FF000400097D4
:101FA000CDE9011006A90EA8FFF7CAFCDDE90F0272
:101FB00003920E9B11990022DDF80CA0009304926D
:101FC00011B9791C00EB010AB7EB0A0004D4C0F187
:101FD000FF3007F1010A0490AAEB0700019044E0EA
:101FE000012F00DA01270021112F01DD112000E06F
:101FF0003846CDE9000106A90EA8FFF7A1FCDDE9EE
:102000000F010E9A0391002104910092BA46210714
:102010000CD40399514500DA8A46BAF1010F05DD67
:10202000009AAAF10101515C302908D0B84202DAC5
:1020300010F1040F06DA0121CDE9011015E0AAF133
:102040000101E9E7002805DC049901440491AAEBA9
:10205000000102E0411C514500DD8A460499401A06
:10206000401C01904FF000400290200704D40198DA
:10207000504501DBCDF8048000208DF84F00029818
:102080000DF14F07B0F1004F25D02B200E90029894
:102090004FF0020800280CDA404202902D200E90EA
:1020A00007E00A210298FEF731F93031029007F873
:1020B000011DB8F10001A8F10108F2DC0298002826
:1020C000EFD1791E0E980870307800F0200040F0B3
:1020D000450007F8020D12A8C01B00F1070814986C
:1020E000007800B1012000EB0A01019801EBE071DA
:1020F00005984144401A401E0590E00306D45B4613
:102100002146179A059800F05DF805441498007868
:1021100018B15A46179990476D1CE00324D55B46C9
:102120002146179A059800F04DF805441CE00498E4
:10213000002807DBDDE90301884203DD0098405CED
:10214000179901E0179930205A469047049805F1F5
:102150000105401C04900198401E019004D12E20DE
:102160005A46179990476D1CBAF10001AAF1010A6D
:10217000DDDC05E017F8010B5A46179990476D1CF6
:10218000B8F10001A8F10108F4DC5B462146179A7A
:102190000598ABE62D0000002B0000002000000099
:1021A0002DE9F041044600251E461746880404D454
:1021B00005E039462020B0476D1C641EF9D528463D
:1021C000BDE8F0812DE9F041044600251E46904609
:1021D000C80301D5302700E02027880404D505E096
:1021E00041463846B0476D1C641EF9D52846BDE807
:1021F000F0810A68531C0B601070704710B50446DC
:1022000000F084F82007000E00F080F8BDE81040D0
:102210000120FEF771BD000010B5044600224FF406
:1022200080510448FEF758FE2046BDE81040FFF7F5
:10223000E5BF0000000C0140012905D0022905D1AD
:10224000BF30C0B2FFF7E8BF7F30FAE77047000049
:1022500010B500F0ADF82B4C00224FF48051204611
:10226000FEF73AFE002261142046FEF735FE0022FA
:102270004FF480412046FEF72FFE234C0022102110
:102280002046FEF729FE002220212046FEF724FEEC
:10229000002240212046FEF71FFE0022802120461A
:1022A000FEF71AFE0F20FEF727FD302000F02EF873
:1022B0000520FEF721FD302000F028F80120FEF770
:1022C0001BFD302000F022F80120FEF715FD202034
:1022D00000F01CF86420FEF70FFD2820FFF79CFF9C
:1022E0000C20FFF799FF0620FFF796FF0120FFF76C
:1022F00093FF0220FFF790FFBDE810406420FEF737
:10230000FBBC0000000C01400008014070B5264EE7
:10231000044600224FF400513046FEF7DDFD234D08
:10232000002210212846FEF7D7FD2009C00704D05F
:10233000012210212846FEF7CFFD00222021284649
:10234000FEF7CAFD6009C00704D0012220212846FB
:10235000FEF7C2FD002240212846FEF7BDFDA00980
:10236000C00704D0012240212846FEF7B5FD002217
:1023700080212846FEF7B0FDE00904D0012280212B
:102380002846FEF7A9FD0122940321463046FEF7B8
:10239000A3FD0120FEF7B0FC21463046BDE87040A9
:1023A0000022FEF799BD0000000C0140000801402A
:1023B0007FB54FF480500124CDE900041C4E032565
:1023C000694603953046FEF7A9FC6003CDE9000499
:1023D000694603953046FEF7A1FCA003CDE9000451
:1023E000694603953046FEF799FC1020CDE90004BC
:1023F000104E694603953046FEF790FC2020CDE94B
:102400000004694603953046FEF788FC4020CDE97C
:102410000004694603953046FEF780FC8020CDE934
:102420000004694603953046FEF778FC7FBD000046
:10243000000C01400008014010B5044601221103C0
:102440000348FEF749FD2046BDE81040FFF7D6BE21
:10245000000C014010B5044603E000BFFFF7ECFF9D
:10246000641C20780028F9D110BD0000FEF748FD5B
:10247000FFF7E7F9FFF78AF9FFF766F9FFF7E8FEDC
:10248000254C264EDFF898804FF47A754FF066376A
:102490002448FEF7B7FB29462248FEF71BFBA0B9EC
:1024A0002048FEF767FA206022681E481EA13030DF
:1024B000FFF722FA01210846FFF7BEFE1948303027
:1024C000FFF7C8FF6420FEF717FC1648FEF7FAFB7B
:1024D0002068FDF7E7FE3146FDF734FEFDF7E7FE25
:1024E0003A464346FDF76CFEFDF7F4FE6060FDF7EB
:1024F000DEFE02460B480B460EA13030FFF7FCF91A
:1025000002210120FFF798FE06483030FFF7A2FFB6
:102510006420FEF7F1FBBBE70000002000F07F45E0
:1025200066660A4018000020414443303A202530B6
:102530002E3464004469656E41703A2025302E3394
:10254000660000000000000000000000010203041B
:102550000607080900000000010203047C250008AA
:102560000000002018000000201900089425000831
:10257000180000205004000030190008000000007E
:10258000000000000100000010000000000000003A
:0425900000A24A0457
:04000005080000ED02
:00000001FF
