:020000040800F2
:100000003804002001010008331000084D0F0008DB
:1000100031100008490100083113000800000000F9
:100020000000000000000000000000006B1200084B
:100030004B01000800000000551000086D12000878
:100040001B0100081B0100081B0100081B01000820
:100050001B0100081B0100081B0100081B01000810
:100060001B0100081B0100081B0100081B01000800
:100070001B0100081B0100081B0100081B010008F0
:100080001B0100081B0100081B0100081B010008E0
:100090001B0100081B0100081B0100081B010008D0
:1000A0001B0100081B0100081B0100081B010008C0
:1000B0001B0100081B010008000000001B010008D4
:1000C0001B01000800000000000000001B010008E8
:1000D000000000001B0100081B01000800000000D8
:1000E0001B0100081B0100081B010008DFF80CD0F1
:1000F00000F018F800480047B11300083804002049
:100100000648804706480047FEE7FEE7FEE7FEE7B1
:10011000FEE7FEE7FEE7FEE7FEE7FEE7E91200087E
:10012000ED000008064C074D06E0E06840F00103D2
:1001300094E8070098471034AC42F6D3FFF7DAFF93
:100140008C140008AC140008FEE7704770B5044634
:1001500000F0F2F80546601C02D004480078044420
:1001600000F0EAF8401BA042FAD370BD1400002052
:100170002DE9F84FDFF894A100220AF1040B144690
:100180004FF0010C4FF00F090BF1040E0B680CFA45
:1001900004F52B40AB4271D15D4E4F68A7EB0608CA
:1001A000B7422BD00DDC032F34D005DC37B3012F41
:1001B00019D0022F2FD11BE0112F16D0122F2AD1C8
:1001C00019E0B8F5881F19D006DCB8F5803F15D0C6
:1001D000B8F5801F1FD111E0B8F5001F0ED0B8F59B
:1001E000041F18D10AE0CA6815E0CA68121D12E09F
:1001F000CA6808320FE0CA680C320CE08A682AB17B
:10020000012A4FF0080203D0456104E0042202E015
:10021000056100E00022FF2B01D8074601E000F154
:1002200004074FEA840601D9A6F120063D6809FAC1
:1002300006F825EA080502FA06F645EA06053D60D5
:100240004D68ED005CD5334DAE6946F00106AE61F8
:10025000AD6924F0030605F0010500952E4D7719D0
:10026000BD68A607360F09FA06F825EA0805DFF883
:10027000AC80404503D14FF0000810E040E0DFF8CB
:10028000A080404502D14FF0010808E0DFF89480DB
:10029000404502D14FF0020801E04FF0030808FA90
:1002A00006F848EA0508C7F808804D68ED0305D54B
:1002B000DAF800501D43CAF8005004E0DAF8006094
:1002C0009E43CAF800604D68DBF80060AD035D46F0
:1002D00001D51E4300E09E432E604D68DEF80060AD
:1002E000ED02754601D51E4300E09E432E604D6829
:1002F000AD020D4D2E6801D51E4300E09E432E60D9
:10030000641C102CFFF442AFBDE8F88F00040140DC
:1003100000001110001002400000014000080140E0
:10032000000C0140001001400C0401400AB10161C1
:1003300070470904FBE7000001488068704700002F
:1003400014000020024881680278114481607047DF
:1003500014000020074810B5016841F01001016049
:10036000032000F091F8002000F006F800F024F8D7
:10037000002010BD0020024070B50D4D04464FF422
:100380007A712878B1FBF0F00A490968B1FBF0F006
:1003900000F0C4FD48B9102C07D200222146501E9F
:1003A00000F052F800206C6070BD012070BD0000AC
:1003B0001400002020000020214808B5816941F088
:1003C00001018161816901F001010091C16941F080
:1003D0008051C161C06900F080500090032000F09E
:1003E00053F8002211466FF00B0000F02DF80022A8
:1003F00011466FF00A0000F027F8002211466FF056
:10040000090000F021F800221146501F00F01CF8EE
:1004100000221146101F00F017F800221146901E0E
:1004200000F012F800221146501E00F00DF80548A9
:10043000416821F0E06141F00071416008BD0000B9
:100440000010024000000140F0B40E4B1B680C4647
:10045000C3F30223C3F10705042D00D90425191D98
:10046000072901D2002300E0DB1E012606FA05F170
:10047000491E214099409E40761E16403143F0BCF3
:1004800000F0D8BD0CED00E0064900F00702086856
:100490004FF6FF03184040EA0220034A1043086069
:1004A000704700000CED00E00000FA050149012052
:1004B0000862704700000E4210B529A401461DCC09
:1004C00086B08DE81D002AA02A4C00680490002008
:1004D000012923D002293AD010291DD16168226850
:1004E000D20119D5C1F38342C9031DF8020009D511
:1004F000616804AAC1F34041515C1F4AB2FBF1F1AB
:10050000484301E01D4948436168490204D4400062
:100510005FF00301B0FBF1F006B010BD226AC2F338
:100520000121012903D1920701D5C803F4E702296B
:1005300005D1626A920702D549F64040ECE70329EB
:10054000EAD121688903E7D54FF22440E4E700F0BF
:100550003DF96168C1F38131491C4900DAE70000C7
:1005600002030405060708090A0B0C0D0E0F1010F4
:10057000010200000010024000127A0000093D0054
:100580002DE9F84305460078354CC00754D0E069A2
:100590000026C00008D4E06940F08050E061E069C6
:1005A000012600F0805000902E480168C90512D441
:1005B0000168804641F480710160FFF7BDFE074687
:1005C00005E000BFFFF7B8FEC01B642823D8D8F8A9
:1005D0000000C005F6D5206A10F4407021D0A9882B
:1005E00001F4407181421CD0206A1F49012220F48D
:1005F00040700A6000220A602062C00711D0FFF735
:100600009BFE074641F2883808E000BFFFF794FEE2
:10061000C11B414502D90320BDE8F883206A800749
:10062000F4D5206A696820F44070084320621EB146
:10063000E06920F08050E0612878800705D5606887
:10064000A96820F44040084360602878C00605D5BA
:100650006068E96820F48000084360600020DBE700
:100660000010024000700040400442422DE9F04773
:10067000DFF83C8105460E46D8F8000000F0070080
:10068000B0420CD2D8F8001021F007013143C8F86D
:100690000010D8F8000000F00700B04263D12878BD
:1006A000444C800705D56068A96820F0F000084335
:1006B00060602878C00745D06868012816D0216896
:1006C000022816D0890700294DDA616821F003015C
:1006D00001436160FFF730FE6968074641F28830E8
:1006E00001290FD00229814619D027E0216889030A
:1006F000E9E78901E7E700BFFFF71EFEC11B494597
:1007000001D918E081466068C0F381000128F3D167
:1007100018E000BFFFF710FEC11B49450BD8606809
:10072000C0F381000228F5D10CE000BFFFF704FE02
:10073000C11B494502D90320BDE8F087606810F06D
:100740000C0FF3D1D8F80010404601F00701B14278
:100750000BD9016821F0070131430160006800F006
:100760000700B04201D00120E6E72878400705D510
:100770006068E96820F4E06008436060287800075A
:1007800006D56068296920F4605040EAC1006060C5
:1007900000F02CF86168084AC1F30311515CC840AD
:1007A000064908600020FFF7E7FD0020C4E70000CD
:1007B00000200240001002407414000820000020B5
:1007C00001480068704700002000002004480549E7
:1007D00000684968044AC1F3C221515CC8407047AF
:1007E00020000020001002408414000812A185B0EF
:1007F0000FC98DE80F0014A0144A006804905168D6
:10080000134801F00C03042B10D0082B0ED1C1F3B8
:100810008343C9031DF803000AD5516804AAC1F334
:100820004041515C0A4A5043B0FBF1F005B07047BB
:1008300008494843FAE700000203040506070809CF
:100840000A0B0C0D0E0F10100102000000100240E8
:1008500000127A0000093D002DE9F84F04460078A7
:10086000B94DC00748D06868C0F38100012807D09F
:100870006868C0F38100022809D16868C00306D502
:100880002868800338D5606800286FD034E060683D
:10089000B0F5803F0BD010B1B0F5A02F11D0286873
:1008A00020F480302860286820F4802002E0286846
:1008B00040F480302860606888B1FFF73DFD06464F
:1008C00009E0286840F480202860F0E7FFF734FD55
:1008D000801B642875D828688003F7D50CE0FFF7E3
:1008E0002BFD064605E000BFFFF726FD801B6428B0
:1008F000F0D828688003F7D42078944E80074FF012
:1009000001094FF000083BD5686810F00C0F07D0C4
:100910006868C0F38100022809D16868C00306D462
:100920002868800714D5206901281FD110E02069AC
:10093000B0B1C6F80090FFF7FFFC074605E000BF26
:10094000FFF7FAFCC01B0228C4D828688007F7D537
:100950002868616920F0F80040EAC10028600FE0D3
:10096000C6F80080FFF7E8FC074606E0E9E000BFB4
:10097000FFF7E2FCC01B022823D828688007F7D4C1
:10098000207800072CD57248A169D9B1C0F8009031
:10099000FFF7D2FC074604E0FFF7CEFCC01B02289D
:1009A0000FD8686A8007F7D56A484FF4FA51006893
:1009B000B0FBF1F0009000BF0098411E0091FAD208
:1009C0000EE080E0C0F80080FFF7B6FC074604E0C8
:1009D000FFF7B2FCC01B022875D8686A8007F7D4FD
:1009E0002078400760D5E8690027C00008D4E8698E
:1009F00040F08050E861E869012700F080500090E5
:100A000055480168C90513D40168834641F48071D3
:100A10000160FFF791FC824606E000BFFFF78CFC07
:100A2000A0EB0A0064284ED8DBF80000C005F5D51D
:100A3000E06801280AD008B1052813D0286A20F000
:100A400001002862286A20F0040002E0286A40F0D1
:100A500001002862E06841F2883B98B1FFF76CFC26
:100A600082460BE0286A40F004002862EEE700BFEF
:100A7000FFF762FCA0EB0A0159455AD8286A8007A3
:100A8000F6D50CE0FFF758FC824605E0FFF754FC72
:100A9000A0EB0A0159454CD8286A8007F6D41FB14B
:100AA000E86920F08050E861E06988B36968C1F3C3
:100AB0008101022945D00228C6F8608004D0FFF7E2
:100AC0003BFC044638E034E0FFF736FC074604E020
:100AD000FFF732FCC01B02282BD828688001F7D40E
:100AE000206AB0F5803F05D16868A16820F4003025
:100AF00008436860D4E908010843696821F4741167
:100B000008436860C6F86090FFF716FC044606E0EC
:100B100015E000BFFFF710FC001B022809D8286869
:100B20008001F7D50BE000BFFFF706FC001B022891
:100B300002D90320BDE8F88F28688001F4D4002092
:100B4000F8E70120F6E700000010024000004242F2
:100B5000800442422000002000700040F8B50500EB
:100B60004FF0000016460C46009006D02CB1002233
:100B70006946284600F019F808B10120F8BD287B25
:100B80002070E87BE070697B6170A97BA17056B131
:100B900000F06AFAE070607800F066FA6070A078A1
:100BA00000F062FAA0700020F8BD2DE9F0479146F0
:100BB0000C465FEA00084AD084B3D8F800004068C9
:100BC000400744D4404600F0EDFA4FF46162054618
:100BD000B0FBF2F1B0FBF2F302FB13503C23B0FB8D
:100BE000F3F0B5FBF2F6607002FB1650B0FBF3F2C7
:100BF00003FB1200A070182931D31820B1FBF0F7C5
:100C0000B1FBF0F200FB12102070404600F0C3FA76
:100C1000411C04D0A84202D9461B02E017E04FF065
:100C2000FF36A7EB071000EB4000C0EB001005EB10
:100C3000C0152946404600F004FB40B9701C01D0A5
:100C4000711900E03146404600F0E7FA10B101208A
:100C5000BDE8F0873946404600F011FA00E0217007
:100C6000B9F1000F0BD0207800F0FEF92070607809
:100C700000F0FAF96070A07800F0F6F9A07000209A
:100C8000E6E7000070B5040003D0607C002610B1D8
:100C900005E0012070BD2674204600F043F80220D4
:100CA0006074204600F010F9042578BB204600F05F
:100CB0003DFA58BB2068416821F007014160A068F7
:100CC00020B11748016821F0010101601448001F9C
:100CD0000168A26821F46071114301606068411CE1
:100CE00004D10120FFF7E8FB80B1401E21688A682B
:100CF00022F00F0242EA10428A602168CA6860F35B
:100D00000F02CA60204600F02BFA08B16574C0E7F4
:100D1000E67301206073A0736074002070BD000052
:100D2000306C004008B50068084988420DD1FFF7D3
:100D3000BDFB0748C16941F00061C161C069054957
:100D400000F0006000900120086008BD002800400D
:100D5000001002403C0442422DE9F0410D460400DF
:100D60003BD0C5B3207C01283AD04FF0010884F86D
:100D7000108002206074E87872B300F06CF9E073C0
:100D8000687800F068F96073A87800F064F9A073DF
:100D9000C2B2617BE07B00F015FA20732870204618
:100DA00000F000FA4FF46161B0FBF1F10025182961
:100DB0002DD91822B1FBF2F1A1EB011101EB410198
:100DC000C1EB011100EBC1163146204600F039FAA3
:100DD0000427C8B90BE000E004E00120BDE8F08181
:100DE0000220FBE7E07368786073A878CFE72046BD
:100DF00000F0D1F9411C0AD0B04208D206490144A2
:100E0000204600F00AFA10B167742574E5E784F80B
:100E1000118025740020E1E7805101002DE9F041A7
:100E20000D46040024D01DB3207C012823D04FF0B0
:100E3000010884F81080022060742878EAB100F07C
:100E40000AF94FF4616100FB01F6687800F003F9DC
:100E5000C0EB001006EB8006A87800F0FCF835180F
:100E60002946204600F0EDF90026042710BB0FE0CC
:100E70000120BDE8F0810220FBE74FF461614843A7
:100E80006978C1EB011100EB8100A9784518E7E70B
:100E90002068416821F005014160204600F07BF99F
:100EA000411C0AD0A84208D206490144204600F05D
:100EB000B4F910B167742674DAE784F811802674E7
:100EC0000020D6E78051010070B504000AD02068E8
:100ED000416821F008014160FFF72EFA05464FF402
:100EE0007A7608E0012070BDFFF726FA401BB04279
:100EF00001D9032070BD206840680007F4D50020A8
:100F000070BD4FF0E0210428086903D020F00400F0
:100F10000861704740F00400FAE7704710B5401EC2
:100F2000B0F1807F01D3012010BD4FF0E02460615B
:100F30000F21601700F07EF80020A06107202061DB
:100F4000002010BD10B5FFF7E8FF10BDFEE7000060
:100F500030B5184885B0816941F00401816180692C
:100F6000154D00F004000490002207212846FFF7E9
:100F7000DDF90720009001200024CDE901040320C1
:100F8000039069462846FFF7F3F8E81400900B48F1
:100F9000CDE9010469462846FFF7EAF84FF410400E
:100FA000CDE90004694628460294FFF7E1F805B050
:100FB00030BD000000100240000801400000211078
:100FC0001CB51A48184901604FF0FF3141604FF4D9
:100FD00080718160FFF756FE00B1FEE721208DF899
:100FE000040029208DF8050000208DF8060001225C
:100FF00001A90E48FFF712FF00B1FEE704208DF8AB
:10100000000011208DF8010022208DF80200182028
:101010008DF80300012269460448FFF79DFE002871
:1010200000D0FEE71CBD0000002800402400002086
:10103000FEE770470907090E002806DA00F00F00E6
:1010400000F1E02080F8141D704700F1E02080F8E6
:10105000001470477047010901EB810100F00F0097
:1010600000EB4100C0B27047002102E00A38C0B274
:10107000491C0A28FAD2090740EA116070472DE995
:10108000F04104460025C07B627BA37B42E0012A3D
:1010900016D0032A14D0052A12D0072A10D0082A05
:1010A0000ED00A2A0CD00C2A0AD0042A10D0062A04
:1010B0000ED0092A0CD00B2A0AD0022A0DD028E023
:1010C0001F2B0CD30C2A05D101221346401C20E013
:1010D0001E2B04D30123521C1BE01C2B02D203F154
:1010E000010316E011D183B29E0710D16426B3FB31
:1010F000F6F706FB173636B94FF4C876B3FBF6F7AA
:1011000006FB17331BB91D2303E01D2B01D103225E
:1011100001236D1C8D42BAD3D1B2E0736173DAB290
:10112000A27300F04FF82073BDE8F08170B504465B
:10113000FFF702F905464FF47A7606E0FFF7FCF870
:10114000401BB04201D9032070BD20684068800672
:10115000F4D52068416841F010014160002070BD65
:1011600070B504460068416821F010014160FFF746
:10117000E3F805464FF47A7607E000BFFFF7DCF8A6
:10118000401BB04201D9032070BD20684068800632
:10119000F4D5002070BD0168086A496A89B241EA45
:1011A00000407047006881698AB2C1698BB2816969
:1011B00089B28A4203D0C06961F31F40704743EA95
:1011C00002407047F0B56424C1EBC1030927A500B4
:1011D000072603EB01130329B3FBF7F100F5FA60CF
:1011E000114401440AD2401EB0FBF4F201EB90011D
:1011F000B0FBF5F0891A0844001D08E0B0FBF4F2DA
:1012000001EB9001B0FBF5F0891A0844801CB0FB9B
:10121000F6F106FB1100C0B2F0BD70B50D460646F2
:101220000024FFF783FF48B93168280C0862316851
:10123000A8B248623046FFF793FF00B10124204670
:1012400070BD70B50D4606460024FFF76FFF48B924
:101250003168280C88613168A8B2C8613046FFF750
:101260007FFF00B10124204670BD704710B5FFF725
:1012700069F8BDE81040FFF765BE30B593B00125B1
:101280000A2000901020CDE904500024CDE9065436
:101290006846FFF7E1FA00B1FEE70F20CDE90A0446
:1012A0000C940D9400210AA80E94FFF7DFF900B109
:1012B000FEE74FF40070CDE90F500FA8FFF760F97B
:1012C00000B1FEE7FFF77CFA4FF47A71B0FBF1F062
:1012D000FFF724FE0420FFF714FE00221146501EE3
:1012E000FFF7B2F813B030BD0D48016841F00101BD
:1012F000016041680B4A1140416001680A4A11408F
:101300000160016821F480210160416821F4FE013F
:1013100041604FF41F0181600449C00308607047B9
:10132000001002400000FFF8FFFFF6FE08ED00E0AD
:10133000FEE702E008C8121F08C1002AFAD1704770
:101340007047002001E001C1121F002AFBD1704745
:101350002DE9F0470A23B0FBF3F4B0FBF3F903FBEC
:101360001408B1FBF3F003FB1016B2FBF3F0B1FB72
:10137000F3F7B2FBF3F503FB10200C4C205C00F0FC
:1013800061F8605D00F05EF8A05D00F05BF8E05D84
:1013900000F058F814F8080000F054F814F80900A8
:1013A00000F050F8BDE8F04700F038B80700002022
:1013B000FEF7D0FFFFF761FFFFF7CAFDFFF700FE62
:1013C0000A4C002209490A48FFF7EFFB07490022AF
:1013D000C91C0748FFF7C2FBA27861782078FFF7A5
:1013E000B7FFC820FEF7B2FEEBE7000000000020C8
:1013F0002400002010B5084C012211462046FEF7BB
:1014000095FF0120FEF7A2FE20460022BDE8104015
:101410000121FEF78BBF00000008014010B5084C09
:10142000012202212046FEF781FF0120FEF78EFEF9
:1014300020460022BDE810400221FEF777BF0000E1
:101440000008014070B50A4E05460024280601D563
:10145000012200E0002204213046FEF767FFFFF77B
:10146000C9FF6806641C050EE4B2082CEED370BDFB
:101470000008014000000000000000000102030419
:10148000060708090000000001020304AC1400086C
:10149000000000202400000032130008D0140008CF
:1014A0002400002014040000421300080000000083
:1014B000000000C0F9A4B0999282F880900000006A
:1014C00001000000100000000000000000A24A041B
:04000005080000ED02
:00000001FF
