:020000040800F2
:100000003804002001010008630A0008FB09000809
:10001000610A000875010008390B000800000000A3
:10002000000000000000000000000000870A000837
:100030007701000800000000850A0008890A00080E
:100040001B0100081B0100081B0100081B01000820
:100050001B0100081B0100081B0100081B01000810
:100060001B0100081B0100081B0100081B01000800
:100070001B0100081B0100081B0100081B010008F0
:100080001B0100081B0100081B0100081B010008E0
:100090001B0100081B0100081B0100081B010008D0
:1000A0001B0100081B0100081B0100081B010008C0
:1000B0001B0100081B010008000000001B010008D4
:1000C0001B01000800000000000000001B010008E8
:1000D000000000001B0100081B01000800000000D8
:1000E0001B0100081B0100081B010008DFF80CD0F1
:1000F00000F02EF8004800474D1400083804002096
:100100000648804706480047FEE7FEE7FEE7FEE7B1
:10011000FEE7FEE7FEE7FEE7FEE7FEE7F10A00087E
:10012000ED00000830B50B460146002020220124D6
:1001300009E021FA02F59D4205D303FA02F5491BB5
:1001400004FA02F52844151EA2F10102F1DC30BDCB
:10015000064C074D06E0E06840F0010394E8070014
:1001600098471034AC42F6D3FFF7C4FFB814000828
:10017000D8140008FEE7704770B5044600F0F6F8A2
:100180000546601C02D004480078044400F0EEF8F4
:10019000401BA042FAD370BD040000202DE9F84FA7
:1001A000DFF894A100220AF1040B14464FF0010C71
:1001B0004FF00F090BF1040E0B680CFA04F52B40FD
:1001C000AB4271D15D4E4F68A7EB0608B7422BD00A
:1001D0000DDC032F34D005DC37B3012F19D0022FEB
:1001E0002FD11BE0112F16D0122F2AD119E0B8F50C
:1001F000881F19D006DCB8F5803F15D0B8F5801FF0
:100200001FD111E0B8F5001F0ED0B8F5041F18D1AA
:100210000AE0CA6815E0CA68121D12E0CA6808320E
:100220000FE0CA680C320CE08A682AB1012A4FF04C
:10023000080203D0456104E0042202E0056100E009
:100240000022FF2B01D8074601E000F104074FEA26
:10025000840601D9A6F120063D6809FA06F825EAC8
:10026000080502FA06F645EA06053D604D68ED0010
:100270005CD5334DAE6946F00106AE61AD6924F040
:10028000030605F0010500952E4D7719BD68A607F8
:10029000360F09FA06F825EA0805DFF8AC80404574
:1002A00003D14FF0000810E040E0DFF8A0804045A7
:1002B00002D14FF0010808E0DFF89480404502D1F8
:1002C0004FF0020801E04FF0030808FA06F848EA88
:1002D0000508C7F808804D68ED0305D5DAF8005029
:1002E0001D43CAF8005004E0DAF800609E43CAF8E3
:1002F00000604D68DBF80060AD035D4601D51E432C
:1003000000E09E432E604D68DEF80060ED02754609
:1003100001D51E4300E09E432E604D68AD020D4D99
:100320002E6801D51E4300E09E432E60641C102CF5
:10033000FFF442AFBDE8F88F000401400000111047
:10034000001002400000014000080140000C014084
:10035000001001400C0401408068084000D00120DA
:1003600070470AB1016170470904FBE701488068E2
:1003700070470000040000200248816802781144A0
:100380008160704704000020074810B5016841F003
:1003900010010160032000F091F8002000F006F841
:1003A00000F024F8002010BD0020024070B50D4D73
:1003B00004464FF47A712878B1FBF0F00A490968D5
:1003C000B1FBF0F000F001FB48B9102C07D200227D
:1003D0002146501E00F052F800206C6070BD0120D4
:1003E00070BD00000400002010000020214808B566
:1003F000816941F001018161816901F00101009190
:10040000C16941F08051C161C06900F08050009025
:10041000032000F053F8002211466FF00B0000F0AB
:100420002DF8002211466FF00A0000F027F8002294
:1004300011466FF0090000F021F800221146501F0C
:1004400000F01CF800221146101F00F017F80022DF
:100450001146901E00F012F800221146501E00F0C6
:100460000DF80548416821F0E06141F000714160FC
:1004700008BD00000010024000000140F0B40E4B27
:100480001B680C46C3F30223C3F10705042D00D9F2
:100490000425191D072901D2002300E0DB1E0126D7
:1004A00006FA05F1491E214099409E40761E1640ED
:1004B0003143F0BC00F0D6BA0CED00E0064900F084
:1004C000070208684FF6FF03184040EA0220034A7B
:1004D00010430860704700000CED00E00000FA05D2
:1004E0002DE9F047DFF83C8105460E46D8F80000BC
:1004F00000F00700B0420CD2D8F8001021F007013C
:100500003143C8F80010D8F8000000F00700B042EE
:1005100063D12878444C800705D56068A96820F02D
:10052000F000084360602878C00745D0686801285B
:1005300016D02168022816D0890700294DDA616893
:1005400021F0030101436160FFF710FF696807466E
:1005500041F2883001290FD00229814619D027E0C5
:1005600021688903E9E78901E7E700BFFFF7FEFE9D
:10057000C11B494501D918E081466068C0F381007C
:100580000128F3D118E000BFFFF7F0FEC11B494579
:100590000BD86068C0F381000228F5D10CE000BFE1
:1005A000FFF7E4FEC11B494502D90320BDE8F087EF
:1005B000606810F00C0FF3D1D8F80010404601F03D
:1005C0000701B1420BD9016821F0070131430160F5
:1005D000006800F00700B04201D00120E6E728786B
:1005E000400705D56068E96820F4E0600843606072
:1005F0002878000706D56068296920F4605040EA31
:10060000C100606000F01CF86168084AC1F3031182
:10061000515CC840064908600020FFF7C7FE002073
:10062000C4E700000020024000100240A8140008A7
:1006300010000020014800687047000010000020F2
:1006400012A185B00FC98DE80F0014A0144A0068EC
:1006500004905168134801F00C03042B10D0082BB0
:100660000ED1C1F38343C9031DF803000AD55168B5
:1006700004AAC1F34041515C0A4A5043B0FBF1F077
:1006800005B0704708494843FAE700000203040533
:10069000060708090A0B0C0D0E0F101001020000CE
:1006A0000010024000127A0000093D002DE9F84FC9
:1006B00004460078B94DC00748D06868C0F381008F
:1006C000012807D06868C0F38100022809D1686852
:1006D000C00306D52868800338D5606800286FD02D
:1006E00034E06068B0F5803F0BD010B1B0F5A02FBA
:1006F00011D0286820F480302860286820F48020F9
:1007000002E0286840F480302860606888B1FFF714
:100710002DFE064609E0286840F480202860F0E7B6
:10072000FFF724FE801B642875D828688003F7D55E
:100730000CE0FFF71BFE064605E000BFFFF716FEC4
:10074000801B6428F0D828688003F7D42078944E62
:1007500080074FF001094FF000083BD5686810F0A2
:100760000C0F07D06868C0F38100022809D16868BF
:10077000C00306D42868800714D5206901281FD13A
:1007800010E02069B0B1C6F80090FFF7EFFD074612
:1007900005E000BFFFF7EAFDC01B0228C4D82868A7
:1007A0008007F7D52868616920F0F80040EAC100A9
:1007B00028600FE0C6F80080FFF7D8FD074606E086
:1007C000E9E000BFFFF7D2FDC01B022823D828684C
:1007D0008007F7D4207800072CD57248A169D9B1D9
:1007E000C0F80090FFF7C2FD074604E0FFF7BEFD2A
:1007F000C01B02280FD8686A8007F7D56A484FF4F3
:10080000FA510068B0FBF1F0009000BF0098411E63
:100810000091FAD20EE080E0C0F80080FFF7A6FD5C
:10082000074604E0FFF7A2FDC01B022875D8686ADE
:100830008007F7D42078400760D5E8690027C0001A
:1008400008D4E86940F08050E861E869012700F0C9
:100850008050009055480168C90513D4016883464B
:1008600041F480710160FFF781FD824606E000BF20
:10087000FFF77CFDA0EB0A0064284ED8DBF80000EF
:10088000C005F5D5E06801280AD008B1052813D0C5
:10089000286A20F001002862286A20F0040002E0A3
:1008A000286A40F001002862E06841F2883B98B174
:1008B000FFF75CFD82460BE0286A40F004002862E6
:1008C000EEE700BFFFF752FDA0EB0A0159455AD8E9
:1008D000286A8007F6D50CE0FFF748FD824605E060
:1008E000FFF744FDA0EB0A0159454CD8286A800760
:1008F000F6D41FB1E86920F08050E861E06988B360
:100900006968C1F38101022945D00228C6F86080D8
:1009100004D0FFF72BFD044638E034E0FFF726FD56
:10092000074604E0FFF722FDC01B02282BD82868E9
:100930008001F7D4206AB0F5803F05D16868A168CE
:1009400020F4003008436860D4E90801084369686E
:1009500021F4741108436860C6F86090FFF706FD43
:10096000044606E015E000BFFFF700FD001B02286B
:1009700009D828688001F7D50BE000BFFFF7F6FC27
:10098000001B022802D90320BDE8F88F28688001E7
:10099000F4D40020F8E70120F6E700000010024040
:1009A00000004242800442421000002000700040DB
:1009B0004FF0E0210428086903D020F0040008610A
:1009C000704740F00400FAE7704710B5401EB0F1E0
:1009D000807F01D3012010BD4FF0E02460610F2122
:1009E000601700F03FF80020A06107202061002080
:1009F00010BD10B5FFF7E8FF10BDFEE770B5164853
:100A000086B0816941F008018161816901F00801C6
:100A10000491816941F00401816180690F4E00F009
:100A2000040004900122F0213046FFF79AFC0F20C9
:100A3000002401258DE8310069463046FFF7AEFB02
:100A4000F020CDE900050320CDE90240694630469B
:100A5000FFF7A4FB06B070BD00100240000C01407F
:100A6000FEE770470907090E002806DA00F00F00BC
:100A700000F1E02080F8141D704700F1E02080F8BC
:100A8000001470477047704710B5FFF775FCBDE85C
:100A90001040FFF7AEBF10B590B0022000900120CB
:100AA000049010200024059007946846FFF7FEFD8F
:100AB00000B1FEE70F20CDE90A040C940D9400214B
:100AC0000AA80E94FFF70CFD00B1FEE7FFF7B2FD98
:100AD0004FF47A71B0FBF1F0FFF777FF0420FFF7D6
:100AE00067FF00221146501EFFF7C8FC10B010BD72
:100AF0000D48016841F00101016041680B4A114055
:100B0000416001680A4A11400160016821F48021B6
:100B10000160416821F4FE0141604FF41F018160D2
:100B20000449C00308607047001002400000FFF84D
:100B3000FFFFF6FE08ED00E0FEE700000FB4084BF3
:100B400010B504A902AA039800F01CF8044602A9F3
:100B5000002000F0B8F9204610BC5DF814FB00003E
:100B6000C70E000802E008C8121F08C1002AFAD107
:100B700070477047002001E001C1121F002AFBD11D
:100B8000704700002DE9FF4F8BB0884605460026D0
:100B900006E025280BD0DDE90D1290476D1C761C70
:100BA00028780028F5D10FB03046BDE8F08F00243A
:100BB000A146A2460122AE4900E0044315F8013FD8
:100BC000203B02FA03F00842F7D128782A2810D0F7
:100BD0006FF02F022878A0F13001092915D809EB10
:100BE000890102EB410144F0020400EB01096D1C94
:100BF000F0E758F8041B5FEA010903D544F40054F8
:100C0000C9F1000944F002046D1C28782E2817D180
:100C100015F8010F44F004042A280ED06FF02F02BB
:100C20002878A0F1300109290AD80AEB8A0102EBE1
:100C3000410100EB010A6D1CF2E758F804AB6D1C92
:100C400028786C280FD006DC4C2817D068280DD0E7
:100C50006A2814D104E0742810D07A280FD10DE04E
:100C600044F400140AE044F4801401E044F4401415
:100C70006978814202D104F580146D1C6D1C2878BE
:100C8000692865D006DC00288DD0632827D0642829
:100C900006D15DE06E2808D073282AD0752877D059
:100CA000DDE90D129047761CE0E0C4F30250022803
:100CB00009D003280DD0D8F8001004280DD00E60FC
:100CC00008F10408D2E0D8F80010F217C1E9006278
:100CD000F6E7D8F800100E80F2E70E70F0E718F88B
:100CE000041B8DF8001000208DF80100EB46012058
:100CF00003E058F804BB4FF0FF3061074FF00007E6
:100D000001D40AE07F1C57450DDA8742FADB1BF855
:100D100007100029F6D106E07F1C8742FCDB1BF898
:100D200007100029F8D1DDE90D23A9EB0700814662
:100D3000214600F0B1F83044C61904E0DDE90D1297
:100D40001BF8010B90477F1EF8D22146484688E0E9
:100D500058F8040BC4F302514FF00A0B032900D1D9
:100D600000B2042900D140B2002802DA40422D210D
:100D700002E0210505D52B218DF82410012104E086
:100D800006E0E10710D02021F6E708AF089113E054
:100D900058F8040BC4F302514FF00A0B032900D199
:100DA00080B2042900D1C0B20021EEE75946FFF716
:100DB000B9F9303107F8011D0028F7D1ADEB070074
:100DC00000F1200B600702D524F4803401E04FF0DD
:100DD000010ADA4502DDAAEB0B0000E000208246A2
:100DE00000EB0B0108980144A9EB01000A90E00315
:100DF00006D4DDE90D2321460A9800F04DF806449B
:100E00004FF0000908E009A911F80900DDE90D1209
:100E1000904709F10109761C08998945F3DBE00345
:100E20000CD5DDE90D2321460A9800F035F806447B
:100E300004E0DDE90D1230209047761CBAF1000184
:100E4000AAF1010AF5DC05E0DDE90D1217F8010B46
:100E50009047761CBBF10001ABF1010BF4DC0A9862
:100E60002146DDE90D2300F005F806446D1C97E6E8
:100E7000092801002DE9F041044600251E461746C9
:100E8000880404D405E039462020B0476D1C641E58
:100E9000F9D52846BDE8F0812DE9F041044600254A
:100EA0001E469046C80301D5302700E0202788045D
:100EB00004D505E041463846B0476D1C641EF9D59F
:100EC0002846BDE8F0810A68531C0B60107070471B
:100ED0002DE9FF41202701AA0124002503260097C0
:100EE000DFF8A48082E8700069464046FFF756F9B3
:100EF00001AA009782E8700069464046FFF74EF964
:100F000040208DE8710069464046FFF747F9802090
:100F10008DE8710069464046FFF740F9CDE900458C
:100F2000694640460294FFF739F90220CDE90005F1
:100F3000694602944046FFF731F90420CDE90005E7
:100F4000694602944046FFF729F90820CDE90005DB
:100F5000694602944046FFF721F9012220214046CC
:100F6000FFF7FFF9012220214046FFF7FAF901229D
:100F700040214046FFF7F5F9012280214046FFF766
:100F8000F0F9BDE8FF810000000C014070B5924D02
:100F9000FF24002220212846FFF7E3F90122202127
:100FA0002846FFF7DEF9012240212846FFF7D9F94C
:100FB000012280212846FFF7D4F901212846FFF7B6
:100FC000CBF978B102212846FFF7C6F990B1042188
:100FD0002846FFF7C1F9A8B108212846FFF7BCF958
:100FE000C0B11EE001212846FFF7B6F90028F9D06C
:100FF000012416E002212846FFF7AEF90028F9D0B7
:1010000005240EE004212846FFF7A6F90028F9D0B0
:10101000092406E008212846FFF79EF90028F9D0A8
:101020000D24012220212846FFF79BF900222021D0
:101030002846FFF796F9012240212846FFF791F94B
:10104000012280212846FFF78CF901212846FFF76D
:1010500083F978B102212846FFF77EF990B1042187
:101060002846FFF779F9A8B108212846FFF774F957
:10107000C0B11EE001212846FFF76EF90028F9D023
:10108000022416E002212846FFF766F90028F9D06D
:1010900006240EE004212846FFF75EF90028F9D067
:1010A0000A2406E008212846FFF756F90028F9D05F
:1010B0000E24012220212846FFF753F90122202186
:1010C0002846FFF74EF9002240212846FFF749F94C
:1010D000012280212846FFF744F901212846FFF725
:1010E0003BF978B102212846FFF736F990B1042187
:1010F0002846FFF731F9A8B108212846FFF72CF957
:10110000C0B11EE001212846FFF726F90028F9D0DA
:10111000032416E002212846FFF71EF90028F9D023
:1011200007240EE004212846FFF716F90028F9D01D
:101130000B2406E008212846FFF70EF90028F9D015
:101140000F24012220212846FFF70BF9012220213C
:101150002846FFF706F9012240212846FFF701F94A
:10116000002280212846FFF7FCF801212846FFF7DE
:10117000F3F878B102212846FFF7EEF890B1042188
:101180002846FFF7E9F8A8B108212846FFF7E4F858
:10119000C0B11EE001212846FFF7DEF80028F9D093
:1011A000042416E002212846FFF7D6F80028F9D0DB
:1011B00008240EE004212846FFF7CEF80028F9D0D5
:1011C0000C2406E008212846FFF7C6F80028F9D0CD
:1011D0001024204670BD0000000C014010B50446EC
:1011E00000F084F82007000E00F080F8BDE8104001
:1011F0000120FEF7C1BF000010B5044600224FF4E5
:1012000080510448FFF7ADF82046BDE81040FFF7D5
:10121000E5BF0000000C0140012905D0022905D1DD
:10122000BF30C0B2FFF7E8BF7F30FAE77047000079
:1012300010B500F0ADF82B4C00224FF48051204641
:10124000FFF78FF8002261142046FFF78AF800228A
:101250004FF480412046FFF784F8234C00221021F0
:101260002046FFF77EF8002220212046FFF779F87C
:10127000002240212046FFF774F8002280212046FA
:10128000FFF76FF80F20FEF777FF302000F02EF801
:101290000520FEF771FF302000F028F80120FEF74E
:1012A0006BFF302000F022F80120FEF765FF2020C0
:1012B00000F01CF86420FEF75FFF2820FFF79CFF7A
:1012C0000C20FFF799FF0620FFF796FF0120FFF79C
:1012D00093FF0220FFF790FFBDE810406420FEF767
:1012E0004BBF0000000C01400008014070B5264EC5
:1012F000044600224FF400513046FFF732F8234DE8
:10130000002210212846FFF72CF82009C00704D03E
:10131000012210212846FFF724F800222021284628
:10132000FFF71FF86009C00704D0012220212846DA
:10133000FFF717F8002240212846FFF712F8A0090E
:10134000C00704D0012240212846FFF70AF80022F6
:1013500080212846FFF705F8E00904D0012280210A
:101360002846FEF7FEFF0122940321463046FEF791
:10137000F8FF0120FEF700FF21463046BDE870402F
:101380000022FEF7EEBF0000000C01400008014003
:101390007FB54FF480500124CDE900041C4E032595
:1013A000694603953046FEF7F9FE6003CDE9000477
:1013B000694603953046FEF7F1FEA003CDE900042F
:1013C000694603953046FEF7E9FE1020CDE900049A
:1013D000104E694603953046FEF7E0FE2020CDE929
:1013E0000004694603953046FEF7D8FE4020CDE95B
:1013F0000004694603953046FEF7D0FE8020CDE913
:101400000004694603953046FEF7C8FE7FBD000024
:10141000000C01400008014010B5044601221103F0
:101420000348FEF79EFF2046BDE81040FFF7D6BEFA
:10143000000C014010B5044603E000BFFFF7ECFFCD
:10144000641C20780028F9D110BD0000FEF79CFF35
:10145000FFF721FBFFF7D2FAFFF7EAFEFFF738FDAF
:101460000BA0FFF7E7FF0C4CFFF790FD2070024642
:101470000AA10C48FFF762FB02210120FFF7CCFE16
:101480000848FFF7D7FF6420FEF776FEECE7000080
:101490004B455950414400000000002025312E33B7
:1014A00064000000140000200000000000000000A4
:1014B0000102030406070809D814000800000020F0
:1014C00014000000640B0008EC1400081400002055
:1014D00024040000740B000800000000010000005C
:0C14E000100000000000000000A24A0400
:04000005080000ED02
:00000001FF
