:020000040800F2
:1000000020040020010100085F0A0008C709000859
:100010005D0A000849010008350B000800000000D7
:10002000000000000000000000000000830A00083B
:100030004B01000800000000810A0008850A000842
:100040001B0100081B0100081B0100081B01000820
:100050001B0100081B0100081B0100081B01000810
:100060001B0100081B0100081B0100081B01000800
:100070001B0100081B0100081B0100081B010008F0
:100080001B0100081B0100081B0100081B010008E0
:100090001B0100081B0100081B0100081B010008D0
:1000A0001B0100081B0100081B0100081B010008C0
:1000B0001B0100081B010008000000001B010008D4
:1000C0001B01000800000000000000001B010008E8
:1000D000000000001B0100081B01000800000000D8
:1000E0001B0100081B0100081B010008DFF80CD0F1
:1000F00000F018F800480047550B000820040020C5
:100100000648804706480047FEE7FEE7FEE7FEE7B1
:10011000FEE7FEE7FEE7FEE7FEE7FEE7ED0A000882
:10012000ED000008064C074D06E0E06840F00103D2
:1001300094E8070098471034AC42F6D3FFF7DAFF93
:10014000CC0B0008EC0B0008FEE7704770B50446C6
:1001500000F0F2F80546601C02D004480078044420
:1001600000F0EAF8401BA042FAD370BD0C0000205A
:100170002DE9F84FDFF894A100220AF1040B144690
:100180004FF0010C4FF00F090BF1040E0B680CFA45
:1001900004F52B40AB4271D15D4E4F68A7EB0608CA
:1001A000B7422BD00DDC032F34D005DC37B3012F41
:1001B00019D0022F2FD11BE0112F16D0122F2AD1C8
:1001C00019E0B8F5881F19D006DCB8F5803F15D0C6
:1001D000B8F5801F1FD111E0B8F5001F0ED0B8F59B
:1001E000041F18D10AE0CA6815E0CA68121D12E09F
:1001F000CA6808320FE0CA680C320CE08A682AB17B
:10020000012A4FF0080203D0456104E0042202E015
:10021000056100E00022FF2B01D8074601E000F154
:1002200004074FEA840601D9A6F120063D6809FAC1
:1002300006F825EA080502FA06F645EA06053D60D5
:100240004D68ED005CD5334DAE6946F00106AE61F8
:10025000AD6924F0030605F0010500952E4D7719D0
:10026000BD68A607360F09FA06F825EA0805DFF883
:10027000AC80404503D14FF0000810E040E0DFF8CB
:10028000A080404502D14FF0010808E0DFF89480DB
:10029000404502D14FF0020801E04FF0030808FA90
:1002A00006F848EA0508C7F808804D68ED0305D54B
:1002B000DAF800501D43CAF8005004E0DAF8006094
:1002C0009E43CAF800604D68DBF80060AD035D46F0
:1002D00001D51E4300E09E432E604D68DEF80060AD
:1002E000ED02754601D51E4300E09E432E604D6829
:1002F000AD020D4D2E6801D51E4300E09E432E60D9
:10030000641C102CFFF442AFBDE8F88F00040140DC
:1003100000001110001002400000014000080140E0
:10032000000C0140001001400C0401400AB10161C1
:1003300070470904FBE7000001488068704700002F
:100340000C000020024881680278114481607047E7
:100350000C000020074810B5016841F01001016051
:10036000032000F091F8002000F006F800F024F8D7
:10037000002010BD0020024070B50D4D04464FF422
:100380007A712878B1FBF0F00A490968B1FBF0F006
:1003900000F001FB48B9102C07D200222146501E64
:1003A00000F052F800206C6070BD012070BD0000AC
:1003B0000C00002018000020214808B5816941F098
:1003C00001018161816901F001010091C16941F080
:1003D0008051C161C06900F080500090032000F09E
:1003E00053F8002211466FF00B0000F02DF80022A8
:1003F00011466FF00A0000F027F8002211466FF056
:10040000090000F021F800221146501F00F01CF8EE
:1004100000221146101F00F017F800221146901E0E
:1004200000F012F800221146501E00F00DF80548A9
:10043000416821F0E06141F00071416008BD0000B9
:100440000010024000000140F0B40E4B1B680C4647
:10045000C3F30223C3F10705042D00D90425191D98
:10046000072901D2002300E0DB1E012606FA05F170
:10047000491E214099409E40761E16403143F0BCF3
:1004800000F0EEBA0CED00E0064900F00702086843
:100490004FF6FF03184040EA0220034A1043086069
:1004A000704700000CED00E00000FA052DE9F04770
:1004B000DFF83C8105460E46D8F8000000F0070042
:1004C000B0420CD2D8F8001021F007013143C8F82F
:1004D0000010D8F8000000F00700B04263D128787F
:1004E000444C800705D56068A96820F0F0000843F7
:1004F00060602878C00745D06868012816D0216858
:10050000022816D0890700294DDA616821F003011D
:1005100001436160FFF710FF6968074641F28830C8
:1005200001290FD00229814619D027E021688903CB
:10053000E9E78901E7E700BFFFF7FEFEC11B494578
:1005400001D918E081466068C0F381000128F3D129
:1005500018E000BFFFF7F0FEC11B49450BD86068EB
:10056000C0F381000228F5D10CE000BFFFF7E4FEE4
:10057000C11B494502D90320BDE8F087606810F02F
:100580000C0FF3D1D8F80010404601F00701B1423A
:100590000BD9016821F0070131430160006800F0C8
:1005A0000700B04201D00120E6E72878400705D5D2
:1005B0006068E96820F4E06008436060287800071C
:1005C00006D56068296920F4605040EAC100606087
:1005D00000F01CF86168084AC1F30311515CC8407F
:1005E000064908600020FFF7C7FE0020C4E70000AE
:1005F0000020024000100240BC0B00081800002040
:1006000001480068704700001800002012A185B062
:100610000FC98DE80F0014A0144A006804905168B7
:10062000134801F00C03042B10D0082B0ED1C1F39A
:100630008343C9031DF803000AD5516804AAC1F316
:100640004041515C0A4A5043B0FBF1F005B070479D
:1006500008494843FAE700000203040506070809B1
:100660000A0B0C0D0E0F10100102000000100240CA
:1006700000127A0000093D002DE9F84F0446007889
:10068000B94DC00748D06868C0F38100012807D081
:100690006868C0F38100022809D16868C00306D5E4
:1006A0002868800338D5606800286FD034E060681F
:1006B000B0F5803F0BD010B1B0F5A02F11D0286855
:1006C00020F480302860286820F4802002E0286828
:1006D00040F480302860606888B1FFF72DFE064640
:1006E00009E0286840F480202860F0E7FFF724FE46
:1006F000801B642875D828688003F7D50CE0FFF7C5
:100700001BFE064605E000BFFFF716FE801B6428AF
:10071000F0D828688003F7D42078944E80074FF0F3
:1007200001094FF000083BD5686810F00C0F07D0A6
:100730006868C0F38100022809D16868C00306D444
:100740002868800714D5206901281FD110E020698E
:10075000B0B1C6F80090FFF7EFFD074605E000BF17
:10076000FFF7EAFDC01B0228C4D828688007F7D528
:100770002868616920F0F80040EAC10028600FE0B5
:10078000C6F80080FFF7D8FD074606E0E9E000BFA5
:10079000FFF7D2FDC01B022823D828688007F7D4B2
:1007A000207800072CD57248A169D9B1C0F8009013
:1007B000FFF7C2FD074604E0FFF7BEFDC01B02289D
:1007C0000FD8686A8007F7D56A484FF4FA51006875
:1007D000B0FBF1F0009000BF0098411E0091FAD2EA
:1007E0000EE080E0C0F80080FFF7A6FD074604E0B9
:1007F000FFF7A2FDC01B022875D8686A8007F7D4EE
:100800002078400760D5E8690027C00008D4E8696F
:1008100040F08050E861E869012700F080500090C6
:1008200055480168C90513D40168834641F48071B5
:100830000160FFF781FD824606E000BFFFF77CFD07
:10084000A0EB0A0064284ED8DBF80000C005F5D5FF
:10085000E06801280AD008B1052813D0286A20F0E2
:1008600001002862286A20F0040002E0286A40F0B3
:1008700001002862E06841F2883B98B1FFF75CFD17
:1008800082460BE0286A40F004002862EEE700BFD1
:10089000FFF752FDA0EB0A0159455AD8286A800794
:1008A000F6D50CE0FFF748FD824605E0FFF744FD72
:1008B000A0EB0A0159454CD8286A8007F6D41FB12D
:1008C000E86920F08050E861E06988B36968C1F3A5
:1008D0008101022945D00228C6F8608004D0FFF7C4
:1008E0002BFD044638E034E0FFF726FD074604E020
:1008F000FFF722FDC01B02282BD828688001F7D4FF
:10090000206AB0F5803F05D16868A16820F4003006
:1009100008436860D4E908010843696821F4741148
:1009200008436860C6F86090FFF706FD044606E0DD
:1009300015E000BFFFF700FD001B022809D828685A
:100940008001F7D50BE000BFFFF7F6FC001B022883
:1009500002D90320BDE8F88F28688001F4D4002074
:10096000F8E70120F6E700000010024000004242D4
:100970008004424218000020007000404FF0E02147
:100980000428086903D020F004000861704740F093
:100990000400FAE7704710B5401EB0F1807F01D324
:1009A000012010BD4FF0E02460610F21601700F0BE
:1009B00057F80020A06107202061002010BD10B56D
:1009C000FFF7E8FF10BDFEE72DE9F043204885B0B2
:1009D000816941F004018161816901F004010491A0
:1009E000816941F0080181618069DFF8688000F069
:1009F000080004900022FF214046FFF797FCDFF833
:100A000058904FF47047012239464846FFF78EFC54
:100A1000FF20012500240226CDE90005CDE902468C
:100A200069464046FFF7A4FB00970396CDE90154C1
:100A300069464846FFF79CFB1820CDE9000469464B
:100A400048460294FFF794FB05B0BDE8F083000030
:100A50000010024000080140000C0140FEE7704712
:100A60000907090E002806DA00F00F0000F1E02067
:100A700080F8141D704700F1E02080F800147047E2
:100A80007047704710B5FFF75DFCBDE81040FFF7F9
:100A900096BF10B590B00220009001200490102065
:100AA0000024059007946846FFF7E6FD00B1FEE7D5
:100AB0000F20CDE90A040C940D9400210AA80E948D
:100AC000FFF7F4FC00B1FEE7FFF79AFD4FF47A71EF
:100AD000B0FBF1F0FFF75FFF0420FFF74FFF0022AC
:100AE0001146501EFFF7B0FC10B010BD0D48016854
:100AF00041F00101016041680B4A11404160016809
:100B00000A4A11400160016821F4802101604168B6
:100B100021F4FE0141604FF41F0181600449C003CC
:100B200008607047001002400000FFF8FFFFF6FE6B
:100B300008ED00E0FEE702E008C8121F08C1002A25
:100B4000FAD170477047002001E001C1121F002A4E
:100B5000FBD17047FFF7FEFBFFF79BFFFFF734FF6A
:100B6000134C00224FF480512046FFF7DFFB012297
:100B700051032046FFF7DAFB00224FF48041204664
:100B8000FFF7D4FB00224FF400412046FFF7CEFBD5
:100B9000084D094E4FF4FA770024285D306038463E
:100BA000FFF7D4FA641CE4B2092CF6D9F4E700008C
:100BB000000C0140000000200C0801400000000073
:100BC000000000000102030406070809EC0B0008FE
:100BD000000000201C000000360B0008080C000874
:100BE0001C00002004040000460B0008C0F9A4B05B
:100BF000999282F88090000001000000100000002F
:080C00000000000000A24A04FC
:04000005080000ED02
:00000001FF
